{
  "abi": [
    {
      "inputs": [],
      "stateMutability": "nonpayable",
      "type": "constructor"
    },
    {
      "anonymous": false,
      "inputs": [
        {
          "indexed": true,
          "internalType": "address",
          "name": "owner",
          "type": "address"
        },
        {
          "indexed": true,
          "internalType": "address",
          "name": "approved",
          "type": "address"
        },
        {
          "indexed": true,
          "internalType": "uint256",
          "name": "tokenId",
          "type": "uint256"
        }
      ],
      "name": "Approval",
      "type": "event"
    },
    {
      "anonymous": false,
      "inputs": [
        {
          "indexed": true,
          "internalType": "address",
          "name": "owner",
          "type": "address"
        },
        {
          "indexed": true,
          "internalType": "address",
          "name": "operator",
          "type": "address"
        },
        {
          "indexed": false,
          "internalType": "bool",
          "name": "approved",
          "type": "bool"
        }
      ],
      "name": "ApprovalForAll",
      "type": "event"
    },
    {
      "anonymous": false,
      "inputs": [
        {
          "indexed": true,
          "internalType": "address",
          "name": "previousOwner",
          "type": "address"
        },
        {
          "indexed": true,
          "internalType": "address",
          "name": "newOwner",
          "type": "address"
        }
      ],
      "name": "OwnershipTransferred",
      "type": "event"
    },
    {
      "anonymous": false,
      "inputs": [
        {
          "indexed": true,
          "internalType": "address",
          "name": "from",
          "type": "address"
        },
        {
          "indexed": true,
          "internalType": "address",
          "name": "to",
          "type": "address"
        },
        {
          "indexed": true,
          "internalType": "uint256",
          "name": "tokenId",
          "type": "uint256"
        }
      ],
      "name": "Transfer",
      "type": "event"
    },
    {
      "inputs": [
        {
          "internalType": "uint256",
          "name": "",
          "type": "uint256"
        }
      ],
      "name": "_attrs",
      "outputs": [
        {
          "internalType": "uint256",
          "name": "",
          "type": "uint256"
        }
      ],
      "stateMutability": "view",
      "type": "function"
    },
    {
      "inputs": [],
      "name": "_collectionDesc",
      "outputs": [
        {
          "internalType": "string",
          "name": "",
          "type": "string"
        }
      ],
      "stateMutability": "view",
      "type": "function"
    },
    {
      "inputs": [],
      "name": "_collectionExtURL",
      "outputs": [
        {
          "internalType": "string",
          "name": "",
          "type": "string"
        }
      ],
      "stateMutability": "view",
      "type": "function"
    },
    {
      "inputs": [],
      "name": "_collectionImgURL",
      "outputs": [
        {
          "internalType": "string",
          "name": "",
          "type": "string"
        }
      ],
      "stateMutability": "view",
      "type": "function"
    },
    {
      "inputs": [],
      "name": "_collectionName",
      "outputs": [
        {
          "internalType": "string",
          "name": "",
          "type": "string"
        }
      ],
      "stateMutability": "view",
      "type": "function"
    },
    {
      "inputs": [],
      "name": "_count",
      "outputs": [
        {
          "internalType": "uint256",
          "name": "",
          "type": "uint256"
        }
      ],
      "stateMutability": "view",
      "type": "function"
    },
    {
      "inputs": [],
      "name": "_feeBasisPoints",
      "outputs": [
        {
          "internalType": "uint256",
          "name": "",
          "type": "uint256"
        }
      ],
      "stateMutability": "view",
      "type": "function"
    },
    {
      "inputs": [],
      "name": "_feeRecipient",
      "outputs": [
        {
          "internalType": "address",
          "name": "",
          "type": "address"
        }
      ],
      "stateMutability": "view",
      "type": "function"
    },
    {
      "inputs": [],
      "name": "_imageBaseURL",
      "outputs": [
        {
          "internalType": "string",
          "name": "",
          "type": "string"
        }
      ],
      "stateMutability": "view",
      "type": "function"
    },
    {
      "inputs": [
        {
          "internalType": "uint256",
          "name": "",
          "type": "uint256"
        }
      ],
      "name": "_maxMintable",
      "outputs": [
        {
          "internalType": "uint256",
          "name": "",
          "type": "uint256"
        }
      ],
      "stateMutability": "view",
      "type": "function"
    },
    {
      "inputs": [
        {
          "internalType": "uint256",
          "name": "",
          "type": "uint256"
        }
      ],
      "name": "_totalMinted",
      "outputs": [
        {
          "internalType": "uint256",
          "name": "",
          "type": "uint256"
        }
      ],
      "stateMutability": "view",
      "type": "function"
    },
    {
      "inputs": [
        {
          "internalType": "address",
          "name": "to",
          "type": "address"
        },
        {
          "internalType": "uint256",
          "name": "tokenId",
          "type": "uint256"
        }
      ],
      "name": "approve",
      "outputs": [],
      "stateMutability": "nonpayable",
      "type": "function"
    },
    {
      "inputs": [
        {
          "internalType": "address",
          "name": "owner",
          "type": "address"
        }
      ],
      "name": "balanceOf",
      "outputs": [
        {
          "internalType": "uint256",
          "name": "",
          "type": "uint256"
        }
      ],
      "stateMutability": "view",
      "type": "function"
    },
    {
      "inputs": [],
      "name": "contractURI",
      "outputs": [
        {
          "internalType": "string",
          "name": "",
          "type": "string"
        }
      ],
      "stateMutability": "view",
      "type": "function"
    },
    {
      "inputs": [
        {
          "internalType": "uint256",
          "name": "tokenId",
          "type": "uint256"
        }
      ],
      "name": "exists",
      "outputs": [
        {
          "internalType": "bool",
          "name": "",
          "type": "bool"
        }
      ],
      "stateMutability": "view",
      "type": "function"
    },
    {
      "inputs": [],
      "name": "getAffinities",
      "outputs": [
        {
          "internalType": "string[8]",
          "name": "",
          "type": "string[8]"
        }
      ],
      "stateMutability": "pure",
      "type": "function"
    },
    {
      "inputs": [
        {
          "internalType": "uint256",
          "name": "tokenId",
          "type": "uint256"
        }
      ],
      "name": "getApproved",
      "outputs": [
        {
          "internalType": "address",
          "name": "",
          "type": "address"
        }
      ],
      "stateMutability": "view",
      "type": "function"
    },
    {
      "inputs": [
        {
          "internalType": "uint256",
          "name": "tokenId",
          "type": "uint256"
        }
      ],
      "name": "getData",
      "outputs": [
        {
          "components": [
            {
              "internalType": "uint256",
              "name": "id",
              "type": "uint256"
            },
            {
              "internalType": "string",
              "name": "image",
              "type": "string"
            },
            {
              "internalType": "uint256",
              "name": "generation",
              "type": "uint256"
            },
            {
              "internalType": "uint8",
              "name": "strength",
              "type": "uint8"
            },
            {
              "internalType": "uint8",
              "name": "toughness",
              "type": "uint8"
            },
            {
              "internalType": "uint8",
              "name": "dexterity",
              "type": "uint8"
            },
            {
              "internalType": "uint8",
              "name": "speed",
              "type": "uint8"
            },
            {
              "internalType": "uint8",
              "name": "vitality",
              "type": "uint8"
            },
            {
              "internalType": "uint8",
              "name": "endurance",
              "type": "uint8"
            },
            {
              "internalType": "uint8",
              "name": "orderId",
              "type": "uint8"
            },
            {
              "internalType": "uint8",
              "name": "corruption",
              "type": "uint8"
            },
            {
              "internalType": "string",
              "name": "order",
              "type": "string"
            },
            {
              "internalType": "string",
              "name": "origin",
              "type": "string"
            },
            {
              "internalType": "string",
              "name": "element",
              "type": "string"
            },
            {
              "internalType": "string",
              "name": "phase",
              "type": "string"
            },
            {
              "internalType": "string",
              "name": "affinity",
              "type": "string"
            },
            {
              "internalType": "string",
              "name": "virtue",
              "type": "string"
            },
            {
              "internalType": "string",
              "name": "vice",
              "type": "string"
            },
            {
              "internalType": "uint16",
              "name": "age",
              "type": "uint16"
            },
            {
              "internalType": "uint16",
              "name": "composition",
              "type": "uint16"
            }
          ],
          "internalType": "struct SeekerData",
          "name": "data",
          "type": "tuple"
        }
      ],
      "stateMutability": "view",
      "type": "function"
    },
    {
      "inputs": [],
      "name": "getElements",
      "outputs": [
        {
          "internalType": "string[9]",
          "name": "",
          "type": "string[9]"
        }
      ],
      "stateMutability": "pure",
      "type": "function"
    },
    {
      "inputs": [],
      "name": "getOrders",
      "outputs": [
        {
          "internalType": "string[16]",
          "name": "",
          "type": "string[16]"
        }
      ],
      "stateMutability": "pure",
      "type": "function"
    },
    {
      "inputs": [],
      "name": "getOrigins",
      "outputs": [
        {
          "internalType": "string[12]",
          "name": "",
          "type": "string[12]"
        }
      ],
      "stateMutability": "pure",
      "type": "function"
    },
    {
      "inputs": [],
      "name": "getPhases",
      "outputs": [
        {
          "internalType": "string[4]",
          "name": "",
          "type": "string[4]"
        }
      ],
      "stateMutability": "pure",
      "type": "function"
    },
    {
      "inputs": [],
      "name": "getVices",
      "outputs": [
        {
          "internalType": "string[7]",
          "name": "",
          "type": "string[7]"
        }
      ],
      "stateMutability": "pure",
      "type": "function"
    },
    {
      "inputs": [],
      "name": "getVirtues",
      "outputs": [
        {
          "internalType": "string[7]",
          "name": "",
          "type": "string[7]"
        }
      ],
      "stateMutability": "pure",
      "type": "function"
    },
    {
      "inputs": [
        {
          "internalType": "address",
          "name": "owner",
          "type": "address"
        },
        {
          "internalType": "address",
          "name": "operator",
          "type": "address"
        }
      ],
      "name": "isApprovedForAll",
      "outputs": [
        {
          "internalType": "bool",
          "name": "",
          "type": "bool"
        }
      ],
      "stateMutability": "view",
      "type": "function"
    },
    {
      "inputs": [
        {
          "internalType": "address",
          "name": "to",
          "type": "address"
        },
        {
          "internalType": "uint8",
          "name": "generation",
          "type": "uint8"
        },
        {
          "internalType": "uint8[8]",
          "name": "attrs",
          "type": "uint8[8]"
        }
      ],
      "name": "mint",
      "outputs": [
        {
          "internalType": "uint256",
          "name": "tokenId",
          "type": "uint256"
        }
      ],
      "stateMutability": "nonpayable",
      "type": "function"
    },
    {
      "inputs": [],
      "name": "name",
      "outputs": [
        {
          "internalType": "string",
          "name": "",
          "type": "string"
        }
      ],
      "stateMutability": "view",
      "type": "function"
    },
    {
      "inputs": [],
      "name": "owner",
      "outputs": [
        {
          "internalType": "address",
          "name": "",
          "type": "address"
        }
      ],
      "stateMutability": "view",
      "type": "function"
    },
    {
      "inputs": [
        {
          "internalType": "uint256",
          "name": "tokenId",
          "type": "uint256"
        }
      ],
      "name": "ownerOf",
      "outputs": [
        {
          "internalType": "address",
          "name": "",
          "type": "address"
        }
      ],
      "stateMutability": "view",
      "type": "function"
    },
    {
      "inputs": [],
      "name": "renounceOwnership",
      "outputs": [],
      "stateMutability": "nonpayable",
      "type": "function"
    },
    {
      "inputs": [
        {
          "internalType": "address",
          "name": "from",
          "type": "address"
        },
        {
          "internalType": "address",
          "name": "to",
          "type": "address"
        },
        {
          "internalType": "uint256",
          "name": "tokenId",
          "type": "uint256"
        }
      ],
      "name": "safeTransferFrom",
      "outputs": [],
      "stateMutability": "nonpayable",
      "type": "function"
    },
    {
      "inputs": [
        {
          "internalType": "address",
          "name": "from",
          "type": "address"
        },
        {
          "internalType": "address",
          "name": "to",
          "type": "address"
        },
        {
          "internalType": "uint256",
          "name": "tokenId",
          "type": "uint256"
        },
        {
          "internalType": "bytes",
          "name": "data",
          "type": "bytes"
        }
      ],
      "name": "safeTransferFrom",
      "outputs": [],
      "stateMutability": "nonpayable",
      "type": "function"
    },
    {
      "inputs": [
        {
          "internalType": "address",
          "name": "operator",
          "type": "address"
        },
        {
          "internalType": "bool",
          "name": "approved",
          "type": "bool"
        }
      ],
      "name": "setApprovalForAll",
      "outputs": [],
      "stateMutability": "nonpayable",
      "type": "function"
    },
    {
      "inputs": [
        {
          "internalType": "string",
          "name": "collectionDesc",
          "type": "string"
        }
      ],
      "name": "setCollectionDesc",
      "outputs": [],
      "stateMutability": "nonpayable",
      "type": "function"
    },
    {
      "inputs": [
        {
          "internalType": "string",
          "name": "collectionExtURL",
          "type": "string"
        }
      ],
      "name": "setCollectionExtURL",
      "outputs": [],
      "stateMutability": "nonpayable",
      "type": "function"
    },
    {
      "inputs": [
        {
          "internalType": "string",
          "name": "collectionImgURL",
          "type": "string"
        }
      ],
      "name": "setCollectionImgURL",
      "outputs": [],
      "stateMutability": "nonpayable",
      "type": "function"
    },
    {
      "inputs": [
        {
          "internalType": "string",
          "name": "collectionName",
          "type": "string"
        }
      ],
      "name": "setCollectionName",
      "outputs": [],
      "stateMutability": "nonpayable",
      "type": "function"
    },
    {
      "inputs": [
        {
          "internalType": "uint256",
          "name": "feeBasisPoints",
          "type": "uint256"
        }
      ],
      "name": "setFeeBasisPoints",
      "outputs": [],
      "stateMutability": "nonpayable",
      "type": "function"
    },
    {
      "inputs": [
        {
          "internalType": "address",
          "name": "feeRecipient",
          "type": "address"
        }
      ],
      "name": "setFeeRecipient",
      "outputs": [],
      "stateMutability": "nonpayable",
      "type": "function"
    },
    {
      "inputs": [
        {
          "internalType": "string",
          "name": "newImageBaseURL",
          "type": "string"
        }
      ],
      "name": "setImageBaseURL",
      "outputs": [],
      "stateMutability": "nonpayable",
      "type": "function"
    },
    {
      "inputs": [
        {
          "internalType": "uint256",
          "name": "generation",
          "type": "uint256"
        },
        {
          "internalType": "uint256",
          "name": "maxMintable",
          "type": "uint256"
        }
      ],
      "name": "setMaxSupply",
      "outputs": [],
      "stateMutability": "nonpayable",
      "type": "function"
    },
    {
      "inputs": [
        {
          "internalType": "bytes4",
          "name": "interfaceId",
          "type": "bytes4"
        }
      ],
      "name": "supportsInterface",
      "outputs": [
        {
          "internalType": "bool",
          "name": "",
          "type": "bool"
        }
      ],
      "stateMutability": "view",
      "type": "function"
    },
    {
      "inputs": [],
      "name": "symbol",
      "outputs": [
        {
          "internalType": "string",
          "name": "",
          "type": "string"
        }
      ],
      "stateMutability": "view",
      "type": "function"
    },
    {
      "inputs": [
        {
          "internalType": "uint256",
          "name": "index",
          "type": "uint256"
        }
      ],
      "name": "tokenByIndex",
      "outputs": [
        {
          "internalType": "uint256",
          "name": "",
          "type": "uint256"
        }
      ],
      "stateMutability": "view",
      "type": "function"
    },
    {
      "inputs": [
        {
          "internalType": "address",
          "name": "owner",
          "type": "address"
        },
        {
          "internalType": "uint256",
          "name": "index",
          "type": "uint256"
        }
      ],
      "name": "tokenOfOwnerByIndex",
      "outputs": [
        {
          "internalType": "uint256",
          "name": "",
          "type": "uint256"
        }
      ],
      "stateMutability": "view",
      "type": "function"
    },
    {
      "inputs": [
        {
          "internalType": "uint256",
          "name": "tokenId",
          "type": "uint256"
        }
      ],
      "name": "tokenURI",
      "outputs": [
        {
          "internalType": "string",
          "name": "",
          "type": "string"
        }
      ],
      "stateMutability": "view",
      "type": "function"
    },
    {
      "inputs": [],
      "name": "totalSupply",
      "outputs": [
        {
          "internalType": "uint256",
          "name": "",
          "type": "uint256"
        }
      ],
      "stateMutability": "view",
      "type": "function"
    },
    {
      "inputs": [
        {
          "internalType": "address",
          "name": "from",
          "type": "address"
        },
        {
          "internalType": "address",
          "name": "to",
          "type": "address"
        },
        {
          "internalType": "uint256",
          "name": "tokenId",
          "type": "uint256"
        }
      ],
      "name": "transferFrom",
      "outputs": [],
      "stateMutability": "nonpayable",
      "type": "function"
    },
    {
      "inputs": [
        {
          "internalType": "address",
          "name": "newOwner",
          "type": "address"
        }
      ],
      "name": "transferOwnership",
      "outputs": [],
      "stateMutability": "nonpayable",
      "type": "function"
    }
  ],
  "bytecode": {
    "object": "0x60806040523480156200001157600080fd5b5060408051808201825260068082526529b2b2b5b2b960d11b60208084018290528451808601909552918452908301529060006200005083826200017d565b5060016200005f82826200017d565b5050506200007c620000766200008260201b60201c565b62000086565b62000249565b3390565b600a80546001600160a01b038381166001600160a01b0319831681179093556040519116919082907f8be0079c531659141344cd1fd0a4f28419497f9722a3daafe3b4186f6b6457e090600090a35050565b634e487b7160e01b600052604160045260246000fd5b600181811c908216806200010357607f821691505b6020821081036200012457634e487b7160e01b600052602260045260246000fd5b50919050565b601f8211156200017857600081815260208120601f850160051c81016020861015620001535750805b601f850160051c820191505b8181101562000174578281556001016200015f565b5050505b505050565b81516001600160401b03811115620001995762000199620000d8565b620001b181620001aa8454620000ee565b846200012a565b602080601f831160018114620001e95760008415620001d05750858301515b600019600386901b1c1916600185901b17855562000174565b600085815260208120601f198616915b828110156200021a57888601518255948401946001909101908401620001f9565b5085821015620002395787850151600019600388901b60f8161c191681555b5050505050600190811b01905550565b6145f080620002596000396000f3fe608060405234801561001057600080fd5b50600436106102ba5760003560e01c806370a0823111610182578063a342f238116100e9578063c87b56dd116100a2578063e8a3d4851161007c578063e8a3d4851461060d578063e985e9c514610615578063ebc0f1d514610651578063f2fde38b1461065957600080fd5b8063c87b56dd146105df578063c8eb9d8a146105f2578063e74b981b146105fa57600080fd5b8063a342f23814610567578063a34caef91461057a578063a7f3997a1461058d578063b1a18cc7146105a2578063b737e98e146105b7578063b88d4fde146105cc57600080fd5b80638eaa1ead1161013b5780638eaa1ead1461051657806391e332fe1461052957806395d89b4114610531578063982ff270146105395780639c544f3c14610541578063a22cb4651461055457600080fd5b806370a08231146104a4578063711ac50f146104b7578063715018a6146104ca5780637ef59cb0146104d25780638278cb66146104f25780638da5cb5b1461050557600080fd5b80632f745c591161022657806347a90dcd116101df57806347a90dcd1461043a5780634aca6c1d1461044d5780634e1b0ae9146104625780634f558e791461046b5780634f6ccce71461047e5780636352211e1461049157600080fd5b80632f745c59146103dd57806330535753146103f0578063349cd1131461040357806337da577c1461040b578063392a93f81461041e57806342842e0e1461042757600080fd5b8063095ea7b311610278578063095ea7b3146103755780630c8f55041461038857806318160ddd1461039b578063213e6e20146103ad57806323b872dd146103b55780632e2dc43e146103c857600080fd5b8062b2b5cb146102bf5780630165dd27146102dd5780630178fe3f146102f257806301ffc9a71461031257806306fdde0314610335578063081812fc1461034a575b600080fd5b6102c761066c565b6040516102d49190613303565b60405180910390f35b6102f06102eb366004613351565b610759565b005b610305610300366004613351565b610766565b6040516102d4919061336a565b610325610320366004613559565b610b6c565b60405190151581526020016102d4565b61033d610b97565b6040516102d49190613576565b61035d610358366004613351565b610c29565b6040516001600160a01b0390911681526020016102d4565b6102f06103833660046135a5565b610c50565b6102f061039636600461365b565b610d6a565b6008545b6040519081526020016102d4565b61033d610d82565b6102f06103c33660046136a4565b610e10565b6103d0610e41565b6040516102d491906136e0565b61039f6103eb3660046135a5565b61109e565b6102f06103fe36600461365b565b611134565b61033d611148565b6102f0610419366004613722565b611155565b61039f600f5481565b6102f06104353660046136a4565b6111cf565b61039f610448366004613755565b6111ea565b6104556113a6565b6040516102d49190613800565b61039f60125481565b610325610479366004613351565b6114dc565b61039f61048c366004613351565b6114fb565b61035d61049f366004613351565b61158e565b61039f6104b2366004613842565b6115ee565b6102f06104c536600461365b565b611674565b6102f0611688565b61039f6104e0366004613351565b60336020526000908152604090205481565b6102f061050036600461365b565b61169c565b600a546001600160a01b031661035d565b61039f610524366004613351565b6116b0565b61033d6116c7565b61033d6116d4565b61033d6116e3565b61039f61054f366004613351565b6116f0565b6102f061056236600461385d565b611700565b60105461035d906001600160a01b031681565b6102f061058836600461365b565b61170b565b61059561171f565b6040516102d49190613899565b6105aa6117bd565b6040516102d491906138da565b6105bf6118ea565b6040516102d4919061391c565b6102f06105da36600461395e565b611a8f565b61033d6105ed366004613351565b611ac7565b61033d611b9a565b6102f0610608366004613842565b611ba7565b61033d611bd1565b6103256106233660046139da565b6001600160a01b03918216600090815260056020908152604080832093909416825291909152205460ff1690565b6102c7611c26565b6102f0610667366004613842565b611d2b565b6106746131e7565b506040805161012081018252600460e0820181815263131d5cdd60e21b6101008401528252825180840184526008815267476c7574746f6e7960c01b602082810191909152808401919091528351808501855260058082526411dc99595960da1b828401528486019190915284518086018652818152640a6d8dee8d60db1b81840152606085015284518086018652818152640aee4c2e8d60db1b8184015260808501528451808601865292835263456e767960e01b8383015260a0840192909252835180850190945290835264507269646560d81b9083015260c081019190915290565b610761611da4565b600f55565b610822604051806102800160405280600081526020016060815260200160008152602001600060ff168152602001600060ff168152602001600060ff168152602001600060ff168152602001600060ff168152602001600060ff168152602001600060ff168152602001600060ff16815260200160608152602001606081526020016060815260200160608152602001606081526020016060815260200160608152602001600061ffff168152602001600061ffff1681525090565b60008281526033602052604081205461083a90611dfe565b838352600160408401528051909150610854906008613a39565b60ff166060830152602081015161086c906008613a39565b60ff1660808301526040810151610884906008613a39565b60ff1660a0830152606081015161089c906008613a39565b60ff1660c083015260808101516108b4906008613a39565b60ff1660e083015260a08101516108cc906008613a39565b60ff90811661010084015260c0820151166101208301526108eb610e41565b60c082015160ff166010811061090357610903613a0d565b602002015161016083015260e081015160ff166101408301526109246118ea565b61094e6040518060400160405280600681526020016527a924a3a4a760d11b81525085600c611e6a565b600c811061095e5761095e613a0d565b60200201516101808301526109716117bd565b61099c604051806040016040528060078152602001661153115351539560ca1b815250856009611e6a565b600981106109ac576109ac613a0d565b60200201516101a08301526109bf61171f565b6109e860405180604001604052806005815260200164504841534560d81b815250856004611e6a565b600481106109f8576109f8613a0d565b60200201516101c0830152610a0b6113a6565b610a3760405180604001604052806008815260200167414646494e49545960c01b815250856008611e6a565b60088110610a4757610a47613a0d565b60200201516101e0830152610a5a611c26565b610a846040518060400160405280600681526020016556495254554560d01b815250856007611e6a565b60078110610a9457610a94613a0d565b6020020151610200830152610aa761066c565b610acf604051806040016040528060048152602001635649434560e01b815250856007611e6a565b60078110610adf57610adf613a0d565b6020020151826102200181905250610b156040518060400160405280600381526020016241474560e81b815250846107d0611e6a565b61ffff1661024083015260408051808201909152600b81526a21a7a6a827a9a4aa24a7a760a91b6020820152610b4e90846107d0611e6a565b61ffff16610260830152610b6182611eb3565b602083015250919050565b60006001600160e01b0319821663780e9d6360e01b1480610b915750610b9182611ef5565b92915050565b606060008054610ba690613a52565b80601f0160208091040260200160405190810160405280929190818152602001828054610bd290613a52565b8015610c1f5780601f10610bf457610100808354040283529160200191610c1f565b820191906000526020600020905b815481529060010190602001808311610c0257829003601f168201915b5050505050905090565b6000610c3482611f45565b506000908152600460205260409020546001600160a01b031690565b6000610c5b8261158e565b9050806001600160a01b0316836001600160a01b031603610ccd5760405162461bcd60e51b815260206004820152602160248201527f4552433732313a20617070726f76616c20746f2063757272656e74206f776e656044820152603960f91b60648201526084015b60405180910390fd5b336001600160a01b0382161480610ce95750610ce98133610623565b610d5b5760405162461bcd60e51b815260206004820152603d60248201527f4552433732313a20617070726f76652063616c6c6572206973206e6f7420746f60448201527f6b656e206f776e6572206f7220617070726f76656420666f7220616c6c0000006064820152608401610cc4565b610d658383611fa4565b505050565b610d72611da4565b6011610d7e8282613ada565b5050565b60118054610d8f90613a52565b80601f0160208091040260200160405190810160405280929190818152602001828054610dbb90613a52565b8015610e085780601f10610ddd57610100808354040283529160200191610e08565b820191906000526020600020905b815481529060010190602001808311610deb57829003601f168201915b505050505081565b610e1a3382612012565b610e365760405162461bcd60e51b8152600401610cc490613b9a565b610d65838383612090565b610e4961320e565b506040805161024081018252600861020082018181526737b3102837bbb2b960c11b6102208401528252825180840184526009808252686f66204769616e747360b81b6020838101919091528085019290925284518086018652908152686f6620546974616e7360b81b818301528385015283518085018552828152671bd98814dada5b1b60c21b81830152606084015283518085018552600d8082526c37b3102832b93332b1ba34b7b760991b828401526080850191909152845180860186528181526c6f66204272696c6c69616e636560981b8184015260a085015284518086018652601081526f1bd988115b9b1a59da1d195b9b595b9d60821b8184015260c0850152845180860186528181526c37b310283937ba32b1ba34b7b760991b8184015260e0850152845180860186529283526737b31020b733b2b960c11b83830152610100840192909252835180850185526007808252666f66205261676560c81b8284015261012085019190915284518086018652908152666f66204675727960c81b8183015261014084015283518085018552600a808252691bd988159a5d1c9a5bdb60b21b8284015261016085019190915284518086018652908152690decc40e8d0ca408cdef60b31b8183015261018084015283518085018552600c8082526b37b3102232ba32b1ba34b7b760a11b828401526101a0850191909152845180860186529283526c37b3102932b33632b1ba34b7b760991b838301526101c084019290925283518085019094529083526b6f6620746865205477696e7360a01b908301526101e081019190915290565b60006110a9836115ee565b821061110b5760405162461bcd60e51b815260206004820152602b60248201527f455243373231456e756d657261626c653a206f776e657220696e646578206f7560448201526a74206f6620626f756e647360a81b6064820152608401610cc4565b506001600160a01b03919091166000908152600660209081526040808320938352929052205490565b61113c611da4565b600c610d7e8282613ada565b600b8054610d8f90613a52565b61115d611da4565b6023826010811061117057611170613a0d565b0154156111b55760405162461bcd60e51b8152602060048201526013602482015272737570706c7920697320696d6d757461626c6560681b6044820152606401610cc4565b80602383601081106111c9576111c9613a0d565b01555050565b610d6583838360405180602001604052806000815250611a8f565b600060238360ff166010811061120257611202613a0d565b015460138460ff166010811061121a5761121a613a0d565b0154106112695760405162461bcd60e51b815260206004820181905260248201527f746f6b656e4964206f7574206f662072616e676520666f722067656e657369736044820152606401610cc4565b601254611277906001613be7565b905060138360ff166010811061128f5761128f613a0d565b01805490600061129e83613bfa565b909155505060408051426020808301919091524482840152606080830185905283518084039091018152608090920190925280519101206112de90612241565b60ff1660e08301526113718260006063826007602002015160ff16901b6056836006602002015160ff16901b6049846005602002015160ff16901b603c856004602002015160ff16901b602f866003602002015160ff16901b6022876002602002015160ff16901b6015886001602002015160ff16901b6008896000602002015160ff16901b1717171717171792915050565b60008281526033602052604090205561138a84826122a7565b6012805490600061139a83613bfa565b91905055509392505050565b6113ae613229565b604051806101000160405280604051806040016040528060078152602001664a75737469636560c81b81525081526020016040518060400160405280600a81526020016929bab13b32b939b4b7b760b11b81525081526020016040518060400160405280600481526020016343616c6d60e01b81525081526020016040518060400160405280600581526020016420b733b2b960d91b81525081526020016040518060400160405280600581526020016411dc99595960da1b81525081526020016040518060400160405280600481526020016346616d6560e01b8152508152602001604051806040016040528060058152602001642837bbb2b960d91b8152508152602001604051806040016040528060078152602001662ab735b737bbb760c91b815250815250905090565b6000818152600260205260408120546001600160a01b03161515610b91565b600061150660085490565b82106115695760405162461bcd60e51b815260206004820152602c60248201527f455243373231456e756d657261626c653a20676c6f62616c20696e646578206f60448201526b7574206f6620626f756e647360a01b6064820152608401610cc4565b6008828154811061157c5761157c613a0d565b90600052602060002001549050919050565b6000818152600260205260408120546001600160a01b031680610b915760405162461bcd60e51b8152602060048201526018602482015277115490cdcc8c4e881a5b9d985b1a59081d1bdad95b88125160421b6044820152606401610cc4565b60006001600160a01b0382166116585760405162461bcd60e51b815260206004820152602960248201527f4552433732313a2061646472657373207a65726f206973206e6f7420612076616044820152683634b21037bbb732b960b91b6064820152608401610cc4565b506001600160a01b031660009081526003602052604090205490565b61167c611da4565b600e610d7e8282613ada565b611690611da4565b61169a60006122c1565b565b6116a4611da4565b600b610d7e8282613ada565b602381601081106116c057600080fd5b0154905081565b600c8054610d8f90613a52565b606060018054610ba690613a52565b600d8054610d8f90613a52565b601381601081106116c057600080fd5b610d7e338383612313565b611713611da4565b600d610d7e8282613ada565b611727613244565b6040518060800160405280604051806040016040528060048152602001632230bbb760e11b81525081526020016040518060400160405280600381526020016244617960e81b8152508152602001604051806040016040528060048152602001634475736b60e01b815250815260200160405180604001604052806005815260200164139a59da1d60da1b815250815250905090565b6117c561325e565b506040805161016081018252600561012082018181526429b7b630b960d91b610140840152825282518084018452600480825263135a5cdd60e21b602083810191909152808501929092528451808601865283815264466c616d6560d81b81840152848601528451808601865283815264546964657360d81b8184015260608501528451808601865292835264537465616d60d81b8383015260808401929092528351808501855291825263159bda5960e21b8282015260a08301919091528251808401845260068082526520b2ba3432b960d11b8284015260c0840191909152835180850185526008815267456c65637472696360c01b8184015260e0840152835180850190945283526526b7ba34b7b760d11b9083015261010081019190915290565b6118f2613279565b50604080516101c08101825260086101808201818152672bb0b73232b932b960c11b6101a08401528252825180840184526006808252652bb0b93232b760d11b60208381019190915280850192909252845180860186529081526525b2b2b832b960d11b818301528385015283518085018552600a8152692434b3b43630b73232b960b11b818301526060840152835180850185526007808252665368696e6f626960c81b8284015260808501919091528451808601865260048152634d6f6e6b60e01b8184015260a08501528451808601865260098152684d657263656e61727960b81b8184015260c0850152845180860186528381526713595c98da185b9d60c21b8184015260e085015284518086018652818152662b32ba32b930b760c91b81840152610100850152845180860186529283526724b73b32b73a37b960c11b83830152610120840192909252835180850185529182526610dd5b1d1a5cdd60ca1b828201526101408301919091528251808401909352600c83526b21b0b93a37b3b930b83432b960a11b9083015261016081019190915290565b611a993383612012565b611ab55760405162461bcd60e51b8152600401610cc490613b9a565b611ac1848484846123e1565b50505050565b6000818152600260205260409020546060906001600160a01b0316611b245760405162461bcd60e51b81526020600482015260136024820152721d1bdad95b88191bd95cdb89dd08195e1a5cdd606a1b6044820152606401610cc4565b6000611b2f83610766565b9050611b73611b3d82612414565b602083015180611b4c8561247d565b604051602001611b5f9493929190613c2f565b6040516020818303038152906040526124ac565b604051602001611b839190613d32565b604051602081830303815290604052915050919050565b600e8054610d8f90613a52565b611baf611da4565b601080546001600160a01b0319166001600160a01b0392909216919091179055565b6060600b600c600d600e611be6600f54612616565b601054611bfd906001600160a01b03166014612717565b604051602001611c1296959493929190613dea565b604051602081830303815290604052905090565b611c2e6131e7565b506040805161012081018252600860e082018181526748756d696c69747960c01b61010084015282528251808401845260078152664368617269747960c81b602082810191909152808401919091528351808501855282815267436861737469747960c01b81830152838501528351808501855260098082526847726174697475646560b81b82840152606085019190915284518086018652600a81526954656d706572616e636560b01b818401526080850152845180860186529283526750617469656e636560c01b8383015260a084019290925283518085019094529083526844696c6967656e636560b81b9083015260c081019190915290565b611d33611da4565b6001600160a01b038116611d985760405162461bcd60e51b815260206004820152602660248201527f4f776e61626c653a206e6577206f776e657220697320746865207a65726f206160448201526564647265737360d01b6064820152608401610cc4565b611da1816122c1565b50565b600a546001600160a01b0316331461169a5760405162461bcd60e51b815260206004820181905260248201527f4f776e61626c653a2063616c6c6572206973206e6f7420746865206f776e65726044820152606401610cc4565b611e06613294565b60ff600883901c81168252601583901c81166020830152602283901c81166040830152602f83901c81166060830152603c83901c81166080830152604983901c811660a0830152605683901c811660c083015260639290921c90911660e082015290565b60008184611e7785612616565b604051602001611e88929190613f3f565b6040516020818303038152906040528051906020012060001c611eab9190613f84565b949350505050565b60606011611ec48360000151612616565b611ecd846128ba565b604051602001611edf93929190613f98565b6040516020818303038152906040529050919050565b60006001600160e01b031982166380ac58cd60e01b1480611f2657506001600160e01b03198216635b5e139f60e01b145b80610b9157506301ffc9a760e01b6001600160e01b0319831614610b91565b6000818152600260205260409020546001600160a01b0316611da15760405162461bcd60e51b8152602060048201526018602482015277115490cdcc8c4e881a5b9d985b1a59081d1bdad95b88125160421b6044820152606401610cc4565b600081815260046020526040902080546001600160a01b0319166001600160a01b0384169081179091558190611fd98261158e565b6001600160a01b03167f8c5be1e5ebec7d5bd14f71427d1e84f3dd0314c0f7b2291e5b200ac8c7c3b92560405160405180910390a45050565b60008061201e8361158e565b9050806001600160a01b0316846001600160a01b0316148061206557506001600160a01b0380821660009081526005602090815260408083209388168352929052205460ff165b80611eab5750836001600160a01b031661207e84610c29565b6001600160a01b031614949350505050565b826001600160a01b03166120a38261158e565b6001600160a01b0316146120c95760405162461bcd60e51b8152600401610cc49061400e565b6001600160a01b03821661212b5760405162461bcd60e51b8152602060048201526024808201527f4552433732313a207472616e7366657220746f20746865207a65726f206164646044820152637265737360e01b6064820152608401610cc4565b6121368383836128d8565b826001600160a01b03166121498261158e565b6001600160a01b03161461216f5760405162461bcd60e51b8152600401610cc49061400e565b600081815260046020908152604080832080546001600160a01b03191690556001600160a01b0386168352600390915281208054600192906121b2908490614053565b90915550506001600160a01b03821660009081526003602052604081208054600192906121e0908490613be7565b909155505060008181526002602052604080822080546001600160a01b0319166001600160a01b0386811691821790925591518493918716917fddf252ad1be2c89b69c2b068fc378daa952ba7f163c4a11628f55a4df523b3ef91a4505050565b60006003612258606561ffff603086901c16613f84565b61226b606561ffff602087901c16613f84565b61227e606561ffff601088901c16613f84565b612289906000613be7565b6122939190613be7565b61229d9190613be7565b610b919190614066565b610d7e828260405180602001604052806000815250612990565b600a80546001600160a01b038381166001600160a01b0319831681179093556040519116919082907f8be0079c531659141344cd1fd0a4f28419497f9722a3daafe3b4186f6b6457e090600090a35050565b816001600160a01b0316836001600160a01b0316036123745760405162461bcd60e51b815260206004820152601960248201527f4552433732313a20617070726f766520746f2063616c6c6572000000000000006044820152606401610cc4565b6001600160a01b03838116600081815260056020908152604080832094871680845294825291829020805460ff191686151590811790915591519182527f17307eab39ab6107e8899845ad3d59bd9653f200f220920489ca2b5937696c31910160405180910390a3505050565b6123ec848484612090565b6123f8848484846129c3565b611ac15760405162461bcd60e51b8152600401610cc49061407a565b6060605082610140015160ff161161243b576040518060200160405280600081525061245f565b6040518060400160405280600a815260200169021b7b9393ab83a32b2160b51b8152505b826101800151836101a00151604051602001611edf939291906140cc565b606061248882612ac4565b61249183612c45565b61249a84612dfd565b604051602001611edf9392919061411f565b805160609060008190036124d0575050604080516020810190915260008152919050565b600060036124df836002613be7565b6124e99190614066565b6124f4906004614162565b90506000612503826020613be7565b67ffffffffffffffff81111561251b5761251b6135cf565b6040519080825280601f01601f191660200182016040528015612545576020820181803683370190505b509050600060405180606001604052806040815260200161457b604091399050600181016020830160005b868110156125d1576003818a01810151603f601282901c8116860151600c83901c8216870151600684901c831688015192909316870151600891821b60ff94851601821b92841692909201901b91160160e01b835260049092019101612570565b5060038606600181146125eb57600281146125fc57612608565b613d3d60f01b600119830152612608565b603d60f81b6000198301525b505050918152949350505050565b60608160000361263d5750506040805180820190915260018152600360fc1b602082015290565b8160005b8115612667578061265181613bfa565b91506126609050600a83614066565b9150612641565b60008167ffffffffffffffff811115612682576126826135cf565b6040519080825280601f01601f1916602001820160405280156126ac576020820181803683370190505b5090505b8415611eab576126c1600183614053565b91506126ce600a86613f84565b6126d9906030613be7565b60f81b8183815181106126ee576126ee613a0d565b60200101906001600160f81b031916908160001a905350612710600a86614066565b94506126b0565b60606000612726836002614162565b612731906002613be7565b67ffffffffffffffff811115612749576127496135cf565b6040519080825280601f01601f191660200182016040528015612773576020820181803683370190505b509050600360fc1b8160008151811061278e5761278e613a0d565b60200101906001600160f81b031916908160001a905350600f60fb1b816001815181106127bd576127bd613a0d565b60200101906001600160f81b031916908160001a90535060006127e1846002614162565b6127ec906001613be7565b90505b6001811115612864576f181899199a1a9b1b9c1cb0b131b232b360811b85600f166010811061282057612820613a0d565b1a60f81b82828151811061283657612836613a0d565b60200101906001600160f81b031916908160001a90535060049490941c9361285d81614181565b90506127ef565b5083156128b35760405162461bcd60e51b815260206004820181905260248201527f537472696e67733a20686578206c656e67746820696e73756666696369656e746044820152606401610cc4565b9392505050565b6060610b916128c88361247d565b604051602001611b5f9190614198565b6001600160a01b0383166129335761292e81600880546000838152600960205260408120829055600182018355919091527ff3f7a9fe364faab93b216da50a3214154f22a0a2b415b23a84c8169e8b636ee30155565b612956565b816001600160a01b0316836001600160a01b031614612956576129568382612e1c565b6001600160a01b03821661296d57610d6581612eb9565b826001600160a01b0316826001600160a01b031614610d6557610d658282612f68565b61299a8383612fac565b6129a760008484846129c3565b610d655760405162461bcd60e51b8152600401610cc49061407a565b60006001600160a01b0384163b15612ab957604051630a85bd0160e11b81526001600160a01b0385169063150b7a0290612a079033908990889088906004016141cc565b6020604051808303816000875af1925050508015612a42575060408051601f3d908101601f19168201909252612a3f91810190614209565b60015b612a9f573d808015612a70576040519150601f19603f3d011682016040523d82523d6000602084013e612a75565b606091505b508051600003612a975760405162461bcd60e51b8152600401610cc49061407a565b805181602001fd5b6001600160e01b031916630a85bd0160e11b149050611eab565b506001949350505050565b6060612af9604051806040016040528060088152602001670a6e8e4cadccee8d60c31b815250836060015160ff16601061315f565b612b2d60405180604001604052806009815260200168546f7567686e65737360b81b815250846080015160ff16601061315f565b612b616040518060400160405280600981526020016844657874657269747960b81b8152508560a0015160ff16601061315f565b612b916040518060400160405280600581526020016414dc19595960da1b8152508660c0015160ff16601061315f565b612bc460405180604001604052806008815260200167566974616c69747960c01b8152508760e0015160ff16601061315f565b612bf960405180604001604052806009815260200168456e647572616e636560b81b81525088610100015160ff16601061315f565b612c2f6040518060400160405280600a81526020016921b7b9393ab83a34b7b760b11b81525089610140015160ff16606461315f565b604051602001611edf9796959493929190614226565b6060612c736040518060400160405280600581526020016427b93232b960d91b81525083610160015161319e565b612ca06040518060400160405280600681526020016527b934b3b4b760d11b81525084610180015161319e565b612cce60405180604001604052806007815260200166115b195b595b9d60ca1b815250856101a0015161319e565b612cfa60405180604001604052806005815260200164506861736560d81b815250866101c0015161319e565b612d2960405180604001604052806008815260200167416666696e69747960c01b815250876101e0015161319e565b612d566040518060400160405280600681526020016556697274756560d01b81525088610200015161319e565b612d81604051806040016040528060048152602001635669636560e01b81525089610220015161319e565b612daf6040518060400160405280600381526020016241676560e81b8152508a610240015161ffff166131ca565b612de56040518060400160405280600b81526020016a21b7b6b837b9b4ba34b7b760a91b8152508b610260015161ffff166131ca565b604051602001611edf999897969594939291906142b8565b6060612e0c8260400151612616565b604051602001611edf9190614379565b60006001612e29846115ee565b612e339190614053565b600083815260076020526040902054909150808214612e86576001600160a01b03841660009081526006602090815260408083208584528252808320548484528184208190558352600790915290208190555b5060009182526007602090815260408084208490556001600160a01b039094168352600681528383209183525290812055565b600854600090612ecb90600190614053565b60008381526009602052604081205460088054939450909284908110612ef357612ef3613a0d565b906000526020600020015490508060088381548110612f1457612f14613a0d565b6000918252602080832090910192909255828152600990915260408082208490558582528120556008805480612f4c57612f4c6143d8565b6001900381819060005260206000200160009055905550505050565b6000612f73836115ee565b6001600160a01b039093166000908152600660209081526040808320868452825280832085905593825260079052919091209190915550565b6001600160a01b0382166130025760405162461bcd60e51b815260206004820181905260248201527f4552433732313a206d696e7420746f20746865207a65726f20616464726573736044820152606401610cc4565b6000818152600260205260409020546001600160a01b0316156130675760405162461bcd60e51b815260206004820152601c60248201527f4552433732313a20746f6b656e20616c7265616479206d696e746564000000006044820152606401610cc4565b613073600083836128d8565b6000818152600260205260409020546001600160a01b0316156130d85760405162461bcd60e51b815260206004820152601c60248201527f4552433732313a20746f6b656e20616c7265616479206d696e746564000000006044820152606401610cc4565b6001600160a01b0382166000908152600360205260408120805460019290613101908490613be7565b909155505060008181526002602052604080822080546001600160a01b0319166001600160a01b03861690811790915590518392907fddf252ad1be2c89b69c2b068fc378daa952ba7f163c4a11628f55a4df523b3ef908290a45050565b60608361316b84612616565b61317484612616565b604051602001613186939291906143ee565b60405160208183030381529060405290509392505050565b606082826040516020016131b3929190614492565b604051602081830303815290604052905092915050565b6060826131d683612616565b6040516020016131b3929190614507565b6040518060e001604052806007905b60608152602001906001900390816131f65790505090565b60408051610200810190915260608152600f602082016131f6565b604080516101008101909152606081526007602082016131f6565b6040805160808101909152606081526003602082016131f6565b604080516101208101909152606081526008602082016131f6565b60408051610180810190915260608152600b602082016131f6565b6040518061010001604052806008906020820280368337509192915050565b60005b838110156132ce5781810151838201526020016132b6565b50506000910152565b600081518084526132ef8160208601602086016132b3565b601f01601f19169290920160200192915050565b6020808252600090610100830183820185845b600781101561334557601f198785030183526133338483516132d7565b93509184019190840190600101613316565b50919695505050505050565b60006020828403121561336357600080fd5b5035919050565b6020815281516020820152600060208301516102808060408501526133936102a08501836132d7565b91506040850151606085015260608501516133b3608086018260ff169052565b50608085015160ff811660a08601525060a085015160ff811660c08601525060c085015160ff811660e08601525060e08501516101006133f78187018360ff169052565b860151905061012061340d8682018360ff169052565b86015190506101406134238682018360ff169052565b86015190506101606134398682018360ff169052565b80870151915050601f1961018081878603018188015261345985846132d7565b9450808801519250506101a081878603018188015261347885846132d7565b9450808801519250506101c081878603018188015261349785846132d7565b9450808801519250506101e08187860301818801526134b685846132d7565b9450808801519250506102008187860301818801526134d585846132d7565b9450808801519250506102208187860301818801526134f485846132d7565b94508088015192505061024081878603018188015261351385846132d7565b9450808801519250505061026061352f8187018361ffff169052565b9095015161ffff1693019290925250919050565b6001600160e01b031981168114611da157600080fd5b60006020828403121561356b57600080fd5b81356128b381613543565b6020815260006128b360208301846132d7565b80356001600160a01b03811681146135a057600080fd5b919050565b600080604083850312156135b857600080fd5b6135c183613589565b946020939093013593505050565b634e487b7160e01b600052604160045260246000fd5b600067ffffffffffffffff80841115613600576136006135cf565b604051601f8501601f19908116603f01168101908282118183101715613628576136286135cf565b8160405280935085815286868601111561364157600080fd5b858560208301376000602087830101525050509392505050565b60006020828403121561366d57600080fd5b813567ffffffffffffffff81111561368457600080fd5b8201601f8101841361369557600080fd5b611eab848235602084016135e5565b6000806000606084860312156136b957600080fd5b6136c284613589565b92506136d060208501613589565b9150604084013590509250925092565b6020808252600090610220830183820185845b601081101561334557601f198785030183526137108483516132d7565b935091840191908401906001016136f3565b6000806040838503121561373557600080fd5b50508035926020909101359150565b803560ff811681146135a057600080fd5b600080600061014080858703121561376c57600080fd5b61377585613589565b93506020613784818701613744565b935086605f87011261379557600080fd5b604051610100810181811067ffffffffffffffff821117156137b9576137b96135cf565b6040529186019180888411156137ce57600080fd5b604088015b848110156137f1576137e481613744565b82529083019083016137d3565b50508093505050509250925092565b6020808252600090610120830183820185845b600881101561334557601f198785030183526138308483516132d7565b93509184019190840190600101613813565b60006020828403121561385457600080fd5b6128b382613589565b6000806040838503121561387057600080fd5b61387983613589565b91506020830135801515811461388e57600080fd5b809150509250929050565b602080825260009060a0830183820185845b600481101561334557601f198785030183526138c88483516132d7565b935091840191908401906001016138ab565b6020808252600090610140830183820185845b600981101561334557601f1987850301835261390a8483516132d7565b935091840191908401906001016138ed565b60208082526000906101a0830183820185845b600c81101561334557601f1987850301835261394c8483516132d7565b9350918401919084019060010161392f565b6000806000806080858703121561397457600080fd5b61397d85613589565b935061398b60208601613589565b925060408501359150606085013567ffffffffffffffff8111156139ae57600080fd5b8501601f810187136139bf57600080fd5b6139ce878235602084016135e5565b91505092959194509250565b600080604083850312156139ed57600080fd5b6139f683613589565b9150613a0460208401613589565b90509250929050565b634e487b7160e01b600052603260045260246000fd5b634e487b7160e01b600052601160045260246000fd5b60ff8181168382160190811115610b9157610b91613a23565b600181811c90821680613a6657607f821691505b602082108103613a8657634e487b7160e01b600052602260045260246000fd5b50919050565b601f821115610d6557600081815260208120601f850160051c81016020861015613ab35750805b601f850160051c820191505b81811015613ad257828155600101613abf565b505050505050565b815167ffffffffffffffff811115613af457613af46135cf565b613b0881613b028454613a52565b84613a8c565b602080601f831160018114613b3d5760008415613b255750858301515b600019600386901b1c1916600185901b178555613ad2565b600085815260208120601f198616915b82811015613b6c57888601518255948401946001909101908401613b4d565b5085821015613b8a5787850151600019600388901b60f8161c191681555b5050505050600190811b01905550565b6020808252602d908201527f4552433732313a2063616c6c6572206973206e6f7420746f6b656e206f776e6560408201526c1c881bdc88185c1c1c9bdd9959609a1b606082015260800190565b80820180821115610b9157610b91613a23565b600060018201613c0c57613c0c613a23565b5060010190565b60008151613c258185602086016132b3565b9290920192915050565b693d913730b6b2911d101160b11b81528451600090613c5581600a850160208a016132b3565b61088b60f21b600a9184019182018190527f226465736372697074696f6e223a20225365656b6572222c0000000000000000600c830152691134b6b0b3b2911d101160b11b60248301528651613cb281602e850160208b016132b3565b602e9201918201819052701132bc3a32b93730b62fbab936111d101160791b60308301528551613ce9816041850160208a016132b3565b60419201918201526e2261747472696275746573223a205b60881b6043820152613d27613d196052830186613c13565b615d7d60f01b815260020190565b979650505050505050565b7f646174613a6170706c69636174696f6e2f6a736f6e3b6261736536342c000000815260008251613d6a81601d8501602087016132b3565b91909101601d0192915050565b60008154613d8481613a52565b60018281168015613d9c5760018114613db157613de0565b60ff1984168752821515830287019450613de0565b8560005260208060002060005b85811015613dd75781548a820152908401908201613dbe565b50505082870194505b5050505092915050565b7f646174613a6170706c69636174696f6e2f6a736f6e3b757466382c7b226e616d81526432911d101160d91b60208201526000613e2a6025830189613d77565b711116113232b9b1b934b83a34b7b7111d101160711b8152613e4f6012820189613d77565b6b11161134b6b0b3b2911d101160a11b81529050613e70600c820188613d77565b61088b60f21b808252711132bc3a32b93730b62fb634b735911d101160711b6002830152909150613ea46014830188613d77565b91508082527f2273656c6c65725f6665655f62617369735f706f696e7473223a20220000000060028301528551613ee281601e850160208a016132b3565b601e92019182015271113332b2afb932b1b4b834b2b73a111d101160711b6020820152613f32613f25613f186032840187613c13565b601160f91b815260010190565b607d60f81b815260010190565b9998505050505050505050565b60008351613f518184602088016132b3565b835190830190613f658183602088016132b3565b01949350505050565b634e487b7160e01b600052601260045260246000fd5b600082613f9357613f93613f6e565b500690565b6000613fa48286613d77565b667365656b65722f60c81b81528451613fc48160078401602089016132b3565b602f60f81b600792909101918201528351613fe68160088401602088016132b3565b6d2f3130383078313038302e706e6760901b6008929091019182015260160195945050505050565b60208082526025908201527f4552433732313a207472616e736665722066726f6d20696e636f72726563742060408201526437bbb732b960d91b606082015260800190565b81810381811115610b9157610b91613a23565b60008261407557614075613f6e565b500490565b60208082526032908201527f4552433732313a207472616e7366657220746f206e6f6e20455243373231526560408201527131b2b4bb32b91034b6b83632b6b2b73a32b960711b606082015260800190565b600084516140de8184602089016132b3565b8451908301906140f28183602089016132b3565b6301037b3160e51b910190815283516141128160048401602088016132b3565b0160040195945050505050565b600084516141318184602089016132b3565b8451908301906141458183602089016132b3565b84519101906141588183602088016132b3565b0195945050505050565b600081600019048311821515161561417c5761417c613a23565b500290565b60008161419057614190613a23565b506000190190565b605b60f81b8152600082516141b48160018501602087016132b3565b605d60f81b6001939091019283015250600201919050565b6001600160a01b03858116825284166020820152604081018390526080606082018190526000906141ff908301846132d7565b9695505050505050565b60006020828403121561421b57600080fd5b81516128b381613543565b6000885160206142398285838e016132b3565b89519184019161424c8184848e016132b3565b895192019161425e8184848d016132b3565b88519201916142708184848c016132b3565b87519201916142828184848b016132b3565b86519201916142948184848a016132b3565b85519201916142a681848489016132b3565b919091019a9950505050505050505050565b60008a516142ca818460208f016132b3565b8a516142dc8183860160208f016132b3565b8a5191840101906142f1818360208e016132b3565b89516143038183850160208e016132b3565b8951929091010190614319818360208c016132b3565b875161432b8183850160208c016132b3565b8751929091010190614341818360208a016132b3565b85516143538183850160208a016132b3565b85519290910101906143698183602088016132b3565b019b9a5050505050505050505050565b7f7b2274726169745f74797065223a202247656e65726174696f6e222c202276618152650363ab2911d160d51b6020820152600082516143c08160268501602087016132b3565b607d60f81b6026939091019283015250602701919050565b634e487b7160e01b600052603160045260246000fd5b6f3d913a3930b4ba2fba3cb832911d101160811b8152835160009061441a8160108501602089016132b3565b6b0111610113b30b63ab2911d160a51b601091840191820152845161444681601c8401602089016132b3565b6e016101136b0bc2fbb30b63ab2911d1608d1b601c9290910191820152835161447681602b8401602088016132b3565b611f4b60f21b602b9290910191820152602d0195945050505050565b6f3d913a3930b4ba2fba3cb832911d101160811b815282516000906144be8160108501602088016132b3565b6c111610113b30b63ab2911d101160991b60109184019182015283516144eb81601d8401602088016132b3565b62089f4b60ea1b601d9290910191820152602001949350505050565b6f3d913a3930b4ba2fba3cb832911d101160811b815282516000906145338160108501602088016132b3565b6b0111610113b30b63ab2911d160a51b601091840191820152835161455f81601c8401602088016132b3565b611f4b60f21b601c9290910191820152601e0194935050505056fe4142434445464748494a4b4c4d4e4f505152535455565758595a6162636465666768696a6b6c6d6e6f707172737475767778797a303132333435363738392b2fa264697066735822122029ff39c4ab4cbf59ac4c5435566cda42b2da6bea70588589f91731ec998cec6564736f6c63430008100033",
    "linkReferences": {}
  },
  "methodIdentifiers": {
    "_attrs(uint256)": "7ef59cb0",
    "_collectionDesc()": "91e332fe",
    "_collectionExtURL()": "c8eb9d8a",
    "_collectionImgURL()": "982ff270",
    "_collectionName()": "349cd113",
    "_count()": "4e1b0ae9",
    "_feeBasisPoints()": "392a93f8",
    "_feeRecipient()": "a342f238",
    "_imageBaseURL()": "213e6e20",
    "_maxMintable(uint256)": "8eaa1ead",
    "_totalMinted(uint256)": "9c544f3c",
    "approve(address,uint256)": "095ea7b3",
    "balanceOf(address)": "70a08231",
    "contractURI()": "e8a3d485",
    "exists(uint256)": "4f558e79",
    "getAffinities()": "4aca6c1d",
    "getApproved(uint256)": "081812fc",
    "getData(uint256)": "0178fe3f",
    "getElements()": "b1a18cc7",
    "getOrders()": "2e2dc43e",
    "getOrigins()": "b737e98e",
    "getPhases()": "a7f3997a",
    "getVices()": "00b2b5cb",
    "getVirtues()": "ebc0f1d5",
    "isApprovedForAll(address,address)": "e985e9c5",
    "mint(address,uint8,uint8[8])": "47a90dcd",
    "name()": "06fdde03",
    "owner()": "8da5cb5b",
    "ownerOf(uint256)": "6352211e",
    "renounceOwnership()": "715018a6",
    "safeTransferFrom(address,address,uint256)": "42842e0e",
    "safeTransferFrom(address,address,uint256,bytes)": "b88d4fde",
    "setApprovalForAll(address,bool)": "a22cb465",
    "setCollectionDesc(string)": "30535753",
    "setCollectionExtURL(string)": "711ac50f",
    "setCollectionImgURL(string)": "a34caef9",
    "setCollectionName(string)": "8278cb66",
    "setFeeBasisPoints(uint256)": "0165dd27",
    "setFeeRecipient(address)": "e74b981b",
    "setImageBaseURL(string)": "0c8f5504",
    "setMaxSupply(uint256,uint256)": "37da577c",
    "supportsInterface(bytes4)": "01ffc9a7",
    "symbol()": "95d89b41",
    "tokenByIndex(uint256)": "4f6ccce7",
    "tokenOfOwnerByIndex(address,uint256)": "2f745c59",
    "tokenURI(uint256)": "c87b56dd",
    "totalSupply()": "18160ddd",
    "transferFrom(address,address,uint256)": "23b872dd",
    "transferOwnership(address)": "f2fde38b"
  },
  "id": 24
}