{
  "abi": [
    {
      "inputs": [
        {
          "internalType": "uint256[2]",
          "name": "a",
          "type": "uint256[2]"
        },
        {
          "internalType": "uint256[2][2]",
          "name": "b",
          "type": "uint256[2][2]"
        },
        {
          "internalType": "uint256[2]",
          "name": "c",
          "type": "uint256[2]"
        },
        {
          "internalType": "uint256[15]",
          "name": "input",
          "type": "uint256[15]"
        }
      ],
      "name": "verifyProof",
      "outputs": [
        {
          "internalType": "bool",
          "name": "r",
          "type": "bool"
        }
      ],
      "stateMutability": "view",
      "type": "function"
    }
  ],
  "bytecode": {
    "object": "0x608060405234801561001057600080fd5b506117e2806100206000396000f3fe608060405234801561001057600080fd5b506004361061002b5760003560e01c8063f054a9a314610030575b600080fd5b61004361003e366004611622565b610057565b604051901515815260200160405180910390f35b6000610061611435565b604080518082018252875181526020808901518183015290835281516080810183528751518184019081528851830151606083015281528251808401845288830180515182525183015181840152818301528382015281518083018352865181528682015181830152838301528151600f8082526102008201909352600092909182016101e08036833701905050905060005b600f811015610143578481600f811061010f5761010f611700565b602002015182828151811061012657610126611700565b60209081029190910101528061013b8161172c565b9150506100f4565b5061014e818361016f565b60000361016057600192505050610167565b6000925050505b949350505050565b60007f30644e72e131a029b85045b68181585d2833e84879b9709143e1f593f00000018161019b610366565b9050806080015151855160016101b19190611745565b146101f85760405162461bcd60e51b81526020600482015260126024820152711d995c9a599a595c8b5898590b5a5b9c1d5d60721b60448201526064015b60405180910390fd5b604080518082019091526000808252602082018190525b86518110156102e9578387828151811061022b5761022b611700565b6020026020010151106102805760405162461bcd60e51b815260206004820152601f60248201527f76657269666965722d6774652d736e61726b2d7363616c61722d6669656c640060448201526064016101ef565b6102d5826102d085608001518460016102999190611745565b815181106102a9576102a9611700565b60200260200101518a85815181106102c3576102c3611700565b6020026020010151610d84565b610e1a565b9150806102e18161172c565b91505061020f565b5061031281836080015160008151811061030557610305611700565b6020026020010151610e1a565b90506103486103248660000151610eb3565b8660200151846000015185602001518587604001518b604001518960600151610f52565b6103585760019350505050610360565b600093505050505b92915050565b61036e611486565b6040805180820182527f2d4d9aa7e302d9df41749d5507949d05dbea33fbb16c643b22f599a2be6df2e281527f14bedd503c37ceb061d8ec60209fe345ce89830a19230301f076caff004d19266020808301919091529083528151608080820184527f0967032fcbf776d1afc985f88877f182d38480a653f2decaa9794cbc3bf3060c8285019081527f0e187847ad4c798374d0d6732bf501847dd68bc0e071241e0213bc7fc13db7ab606080850191909152908352845180860186527f304cfbd1e08a704a99f5e847d93f8c3caafddec46b7a0d379da69a4d112346a781527f1739c1b1a457a8c7313123d24d2f9192f896b7c63eea05a9d57f06547ad0cec8818601528385015285840192909252835180820185527f198e9393920d483a7260bfb731fb5d25f1aa493335a9e71297e485b7aef312c28186019081527f1800deef121f1e76426a00665e5c4479674322d4f75edadd46debd5cd992f6ed828501528152845180860186527f090689d0585ff075ec9e99ad690c3395bc4b313370b38ef355acdadcd122975b81527f12c85ea5db8c6deb4aab71808dcb408fe3d1e7690c43d37b4ce6cc0166fa7daa818601528185015285850152835190810184527f2d58a9f9e05c359cd692adca96ca2f6809b6545b835d97640d99b901fbac40218185019081527f28d2545f4bf90ce3b5582fb9b66e21370f426edf1ce5dcdf1034cdb1a41c0a48828401528152835180850185527f2d3e35e8ce37693ed2ef6be1ca07537336710c441ee76da78f5e7fa64c0f215a81527f1c91a2f6f1241b90647d35c232eed81954d1124ec642a6c81de61c1d45089921818501528184015290840152815160108082526102208201909352919082015b60408051808201909152600080825260208201528152602001906001900390816105ea57505060808201908152604080518082019091527f1cab9b78be2b9794b9070057f14e4ff1a3505ee0c8042efcbc3b51fa1a83ca2c81527f217f1adc3e28a3e55fcfbe8992d29c4318cbf02e99aa9028d9602425e78a153860208201529051805160009061067d5761067d611700565b602002602001018190525060405180604001604052807f1c689116bdb9efa38434b051d9da1b34627dd36516ad928a41556d8daa8b023c81526020017f1fb2669e57a96428c540e62cd7e9bd86917f2dfd1debd024c8be828aace008e981525081608001516001815181106106f4576106f4611700565b602002602001018190525060405180604001604052807f06d26e20629d6b72c5e6435917aacf37eb03b6ce9c1fa81460f34d1d879d312481526020017f192bce5de14d424410fb86ad6497c56574fb69dfbcd567f6a333c2c81d94cbf0815250816080015160028151811061076b5761076b611700565b602002602001018190525060405180604001604052807f24dcb752eb056aeec6406efc2e02786c9df97890da96e5c862009e38f029646781526020017f2db7376600314dfb3766202d400c1d7aeaec009d5e8a09acd4ca6da7f209df2c81525081608001516003815181106107e2576107e2611700565b602002602001018190525060405180604001604052807f1c39a776f629143ab307ac5a37a083f8a0f4c66a570f953bde9f93419fca48a581526020017f288337b75d079410bbcf7536e280c0e8919c053fbce6286bf75f7511db06592e815250816080015160048151811061085957610859611700565b602002602001018190525060405180604001604052807f248accba506c7d60e02ec73475795aa5eac20d59b1b3710d0c0aa00fdec4557281526020017f13ac042d4cba8d0cf5d8e27d3a0254fe50c23a8007c4aa1878cee79012c69a8f81525081608001516005815181106108d0576108d0611700565b602002602001018190525060405180604001604052807f22c266d01bc9a3753f03b20e0914c52838578784aab9e0f2c57c3f41eeaf0c3f81526020017f2290eeb762ead69fb897221059b817e59dcd865fa7dccdb096ce485870484307815250816080015160068151811061094757610947611700565b602002602001018190525060405180604001604052807f09c8b490735bc4b030c2c3f9bdc58bc268c6c9e0c7d4f1e74a43ac1156ec8c5181526020017f139ab0dc7c1379e4a43c5eb46bbf8e0374cee8acd6e921665d124b3d9fa998a381525081608001516007815181106109be576109be611700565b602002602001018190525060405180604001604052807f15f5e8f607595a29d0254f96ad4016f203d2fb9bc720e4fcd1e63914a2328d9f81526020017f0a3a909761e232bd72988906f7d385d59362ef9299358be2325c6caf463c26f88152508160800151600881518110610a3557610a35611700565b602002602001018190525060405180604001604052807f1c78efa3cb2e15a61211062e53cdd25aad08b5912fa5ef699043e02c19a5ca8881526020017f169aadce9541957fb2b177344137fa422a5c5e6d04c5f4188ac190412075c0228152508160800151600981518110610aac57610aac611700565b602002602001018190525060405180604001604052807f01044a4fef703e977eb9b4fca791aeb028926a359ec724c9e7d631a02341a58d81526020017f141de6d63cbd99f47f0ac9c10bd7b3607af03c6de379755f45413a6bd0490ae88152508160800151600a81518110610b2357610b23611700565b602002602001018190525060405180604001604052807f1c852bb030757e2be30e93762639316f052b1f2c3dcd7dd8e3ba12e4b53e9ef581526020017f24d67e20d36a6bb8774ebbcdf51f73a754e4fd93f1e6555910c47d7f1651fbbe8152508160800151600b81518110610b9a57610b9a611700565b602002602001018190525060405180604001604052807f1459292f78e9b2c340d9634c2a5a82791561682e3c1827752a74ddb51cc839e881526020017f2f59f558570ee813d5611e8ba066d8dec6c8ba8a4fab57c81104ff1286374a788152508160800151600c81518110610c1157610c11611700565b602002602001018190525060405180604001604052807f0ab7fb8f0e8e16293499b6222f0d01a32530cbcb294858144b4b9a47fc77f7da81526020017f2a4f0a2d00f8b09e7b6536fe20c9f55e0698397b99b66adba6a5605e0b0aee958152508160800151600d81518110610c8857610c88611700565b602002602001018190525060405180604001604052807f1568c59250a76898bfe68764989c7708cb53e0c7508f47031c2bb65358edffaa81526020017f02f857916bf68c075213d86f8f90fb6c13341da341752291d3187f431f5f85098152508160800151600e81518110610cff57610cff611700565b602002602001018190525060405180604001604052807f067a006cd322af91b0263bf4457d3ba9c2aada85ed511c0ffdd480b76d0ba79b81526020017f1fc176d8ecbfddfce755ae712a4988b0a87ef52b87f28393f6ce08f1557a50088152508160800151600f81518110610d7657610d76611700565b602002602001018190525090565b6040805180820190915260008082526020820152610da06114d7565b835181526020808501519082015260408101839052600060608360808460076107d05a03fa90508080610dcf57fe5b5080610e125760405162461bcd60e51b81526020600482015260126024820152711c185a5c9a5b99cb5b5d5b0b59985a5b195960721b60448201526064016101ef565b505092915050565b6040805180820190915260008082526020820152610e366114f5565b8351815260208085015181830152835160408301528301516060808301919091526000908360c08460066107d05a03fa90508080610e7057fe5b5080610e125760405162461bcd60e51b81526020600482015260126024820152711c185a5c9a5b99cb5859190b59985a5b195960721b60448201526064016101ef565b604080518082019091526000808252602082015281517f30644e72e131a029b85045b68181585d97816a916871ca8d3c208c16d87cfd4790158015610efa57506020830151155b15610f1a5750506040805180820190915260008082526020820152919050565b604051806040016040528084600001518152602001828560200151610f3f9190611758565b610f49908461177a565b90529392505050565b60408051600480825260a08201909252600091829190816020015b6040805180820190915260008082526020820152815260200190600190039081610f6d57505060408051600480825260a0820190925291925060009190602082015b610fb7611513565b815260200190600190039081610faf5790505090508a82600081518110610fe057610fe0611700565b60200260200101819052508882600181518110610fff57610fff611700565b6020026020010181905250868260028151811061101e5761101e611700565b6020026020010181905250848260038151811061103d5761103d611700565b6020026020010181905250898160008151811061105c5761105c611700565b6020026020010181905250878160018151811061107b5761107b611700565b6020026020010181905250858160028151811061109a5761109a611700565b602002602001018190525083816003815181106110b9576110b9611700565b60200260200101819052506110ce82826110dd565b9b9a5050505050505050505050565b600081518351146111295760405162461bcd60e51b81526020600482015260166024820152751c185a5c9a5b99cb5b195b99dd1a1ccb59985a5b195960521b60448201526064016101ef565b8251600061113882600661178d565b905060008167ffffffffffffffff8111156111555761115561156f565b60405190808252806020026020018201604052801561117e578160200160208202803683370190505b50905060005b838110156113b95786818151811061119e5761119e611700565b602002602001015160000151828260066111b8919061178d565b6111c3906000611745565b815181106111d3576111d3611700565b6020026020010181815250508681815181106111f1576111f1611700565b6020026020010151602001518282600661120b919061178d565b611216906001611745565b8151811061122657611226611700565b60200260200101818152505085818151811061124457611244611700565b602090810291909101015151518261125d83600661178d565b611268906002611745565b8151811061127857611278611700565b60200260200101818152505085818151811061129657611296611700565b602090810291909101810151510151826112b183600661178d565b6112bc906003611745565b815181106112cc576112cc611700565b6020026020010181815250508581815181106112ea576112ea611700565b60200260200101516020015160006002811061130857611308611700565b60200201518261131983600661178d565b611324906004611745565b8151811061133457611334611700565b60200260200101818152505085818151811061135257611352611700565b60200260200101516020015160016002811061137057611370611700565b60200201518261138183600661178d565b61138c906005611745565b8151811061139c5761139c611700565b6020908102919091010152806113b18161172c565b915050611184565b506113c2611533565b6000602082602086026020860160086107d05a03fa905080806113e157fe5b50806114275760405162461bcd60e51b81526020600482015260156024820152741c185a5c9a5b99cb5bdc18dbd9194b59985a5b1959605a1b60448201526064016101ef565b505115159695505050505050565b6040805160a08101909152600060608201818152608083019190915281526020810161145f611513565b8152602001611481604051806040016040528060008152602001600081525090565b905290565b6040805160e08101909152600060a0820181815260c08301919091528152602081016114b0611513565b81526020016114bd611513565b81526020016114ca611513565b8152602001606081525090565b60405180606001604052806003906020820280368337509192915050565b60405180608001604052806004906020820280368337509192915050565b6040518060400160405280611526611551565b8152602001611481611551565b60405180602001604052806001906020820280368337509192915050565b60405180604001604052806002906020820280368337509192915050565b634e487b7160e01b600052604160045260246000fd5b6040805190810167ffffffffffffffff811182821017156115a8576115a861156f565b60405290565b6040516101e0810167ffffffffffffffff811182821017156115a8576115a861156f565b600082601f8301126115e357600080fd5b6115eb611585565b8060408401858111156115fd57600080fd5b845b818110156116175780358452602093840193016115ff565b509095945050505050565b6000806000806102e080868803121561163a57600080fd5b61164487876115d2565b9450604087605f88011261165757600080fd5b61165f611585565b8060c089018a81111561167157600080fd5b838a015b81811015611696576116878c826115d2565b84526020909301928401611675565b508197506116a48b826115d2565b9650505050508661011f8701126116ba57600080fd5b6116c26115ae565b9086019080888311156116d457600080fd5b61010088015b838110156116f25780358352602092830192016116da565b509598949750929550505050565b634e487b7160e01b600052603260045260246000fd5b634e487b7160e01b600052601160045260246000fd5b60006001820161173e5761173e611716565b5060010190565b8082018082111561036057610360611716565b60008261177557634e487b7160e01b600052601260045260246000fd5b500690565b8181038181111561036057610360611716565b60008160001904831182151516156117a7576117a7611716565b50029056fea2646970667358221220192b4fd8814c33ce3b718ed88be39280374c0ef86d7c035452f39e8fee9dd56764736f6c63430008100033",
    "linkReferences": {}
  },
  "methodIdentifiers": {
    "verifyProof(uint256[2],uint256[2][2],uint256[2],uint256[15])": "f054a9a3"
  },
  "id": 20
}