{
  "abi": [
    {
      "inputs": [],
      "stateMutability": "nonpayable",
      "type": "constructor"
    },
    {
      "inputs": [
        {
          "internalType": "uint256",
          "name": "",
          "type": "uint256"
        }
      ],
      "name": "getAlignment",
      "outputs": [
        {
          "internalType": "enum Alignment",
          "name": "",
          "type": "uint8"
        }
      ],
      "stateMutability": "pure",
      "type": "function"
    },
    {
      "inputs": [
        {
          "internalType": "uint256",
          "name": "",
          "type": "uint256"
        }
      ],
      "name": "ownerOf",
      "outputs": [
        {
          "internalType": "address",
          "name": "",
          "type": "address"
        }
      ],
      "stateMutability": "pure",
      "type": "function"
    }
  ],
  "bytecode": {
    "object": "0x608060405234801561001057600080fd5b5060f38061001f6000396000f3fe6080604052348015600f57600080fd5b506004361060325760003560e01c806327257c751460375780636352211e14605c575b600080fd5b60486042366004607e565b50600090565b604051605391906096565b60405180910390f35b60676042366004607e565b6040516001600160a01b0390911681526020016053565b600060208284031215608f57600080fd5b5035919050565b602081016006831060b757634e487b7160e01b600052602160045260246000fd5b9190529056fea2646970667358221220918b04de8c6e41c504b0ef834db0cf83c8fc7c16931c6681ede71a2df52dfd5164736f6c63430008100033",
    "linkReferences": {}
  },
  "methodIdentifiers": {
    "getAlignment(uint256)": "27257c75",
    "ownerOf(uint256)": "6352211e"
  },
  "id": 23
}