{
  "abi": [
    {
      "inputs": [
        {
          "internalType": "address",
          "name": "_seekerContractAddr",
          "type": "address"
        },
        {
          "internalType": "address",
          "name": "_runeContractAddr",
          "type": "address"
        },
        {
          "internalType": "address",
          "name": "_combatVerifierContractAddr",
          "type": "address"
        },
        {
          "internalType": "address",
          "name": "_hasherContractAddr",
          "type": "address"
        },
        {
          "internalType": "enum Alignment",
          "name": "_dungeonAttackAlignment",
          "type": "uint8"
        },
        {
          "internalType": "enum Alignment",
          "name": "_dungeonArmourAlignment",
          "type": "uint8"
        },
        {
          "internalType": "enum Alignment",
          "name": "_dungeonHealthAlignment",
          "type": "uint8"
        }
      ],
      "stateMutability": "nonpayable",
      "type": "constructor"
    },
    {
      "inputs": [
        {
          "internalType": "enum Alignment",
          "name": "sourceAlignment",
          "type": "uint8"
        },
        {
          "internalType": "enum Alignment",
          "name": "targetAlignment",
          "type": "uint8"
        }
      ],
      "name": "alignmentBonus",
      "outputs": [
        {
          "internalType": "uint8",
          "name": "",
          "type": "uint8"
        }
      ],
      "stateMutability": "pure",
      "type": "function"
    },
    {
      "inputs": [
        {
          "internalType": "enum Action",
          "name": "action",
          "type": "uint8"
        },
        {
          "internalType": "uint256",
          "name": "slotID",
          "type": "uint256"
        },
        {
          "internalType": "uint8[7]",
          "name": "args",
          "type": "uint8[7]"
        }
      ],
      "name": "appendAction",
      "outputs": [],
      "stateMutability": "nonpayable",
      "type": "function"
    },
    {
      "inputs": [
        {
          "components": [
            {
              "internalType": "uint256",
              "name": "dungeonArmour",
              "type": "uint256"
            },
            {
              "internalType": "uint256",
              "name": "dungeonHealth",
              "type": "uint256"
            },
            {
              "internalType": "uint256",
              "name": "seekerArmour",
              "type": "uint256"
            },
            {
              "internalType": "uint256",
              "name": "seekerHealth",
              "type": "uint256"
            },
            {
              "internalType": "uint256",
              "name": "seekerSlot",
              "type": "uint256"
            }
          ],
          "internalType": "struct CombatState",
          "name": "state",
          "type": "tuple"
        },
        {
          "components": [
            {
              "internalType": "uint256[2]",
              "name": "a",
              "type": "uint256[2]"
            },
            {
              "internalType": "uint256[2][2]",
              "name": "b",
              "type": "uint256[2][2]"
            },
            {
              "internalType": "uint256[2]",
              "name": "c",
              "type": "uint256[2]"
            }
          ],
          "internalType": "struct CombatProof",
          "name": "proof",
          "type": "tuple"
        }
      ],
      "name": "claimAttackRune",
      "outputs": [],
      "stateMutability": "view",
      "type": "function"
    },
    {
      "inputs": [
        {
          "components": [
            {
              "internalType": "uint256",
              "name": "dungeonArmour",
              "type": "uint256"
            },
            {
              "internalType": "uint256",
              "name": "dungeonHealth",
              "type": "uint256"
            },
            {
              "internalType": "uint256",
              "name": "seekerArmour",
              "type": "uint256"
            },
            {
              "internalType": "uint256",
              "name": "seekerHealth",
              "type": "uint256"
            },
            {
              "internalType": "uint256",
              "name": "seekerSlot",
              "type": "uint256"
            }
          ],
          "internalType": "struct CombatState",
          "name": "state",
          "type": "tuple"
        },
        {
          "components": [
            {
              "internalType": "uint256[2]",
              "name": "a",
              "type": "uint256[2]"
            },
            {
              "internalType": "uint256[2][2]",
              "name": "b",
              "type": "uint256[2][2]"
            },
            {
              "internalType": "uint256[2]",
              "name": "c",
              "type": "uint256[2]"
            }
          ],
          "internalType": "struct CombatProof",
          "name": "proof",
          "type": "tuple"
        }
      ],
      "name": "claimReward",
      "outputs": [],
      "stateMutability": "view",
      "type": "function"
    },
    {
      "inputs": [
        {
          "internalType": "uint256",
          "name": "packed",
          "type": "uint256"
        }
      ],
      "name": "decodeAction",
      "outputs": [
        {
          "internalType": "enum Action",
          "name": "action",
          "type": "uint8"
        },
        {
          "internalType": "uint8[7]",
          "name": "args",
          "type": "uint8[7]"
        }
      ],
      "stateMutability": "pure",
      "type": "function"
    },
    {
      "inputs": [],
      "name": "dungeonArmourAlignment",
      "outputs": [
        {
          "internalType": "enum Alignment",
          "name": "",
          "type": "uint8"
        }
      ],
      "stateMutability": "view",
      "type": "function"
    },
    {
      "inputs": [],
      "name": "dungeonAttackAlignment",
      "outputs": [
        {
          "internalType": "enum Alignment",
          "name": "",
          "type": "uint8"
        }
      ],
      "stateMutability": "view",
      "type": "function"
    },
    {
      "inputs": [],
      "name": "dungeonBattleStart",
      "outputs": [
        {
          "internalType": "uint256",
          "name": "",
          "type": "uint256"
        }
      ],
      "stateMutability": "view",
      "type": "function"
    },
    {
      "inputs": [],
      "name": "dungeonHealthAlignment",
      "outputs": [
        {
          "internalType": "enum Alignment",
          "name": "",
          "type": "uint8"
        }
      ],
      "stateMutability": "view",
      "type": "function"
    },
    {
      "inputs": [],
      "name": "dungeonStrength",
      "outputs": [
        {
          "internalType": "uint8",
          "name": "",
          "type": "uint8"
        }
      ],
      "stateMutability": "view",
      "type": "function"
    },
    {
      "inputs": [
        {
          "internalType": "enum Action",
          "name": "action",
          "type": "uint8"
        },
        {
          "internalType": "uint8[7]",
          "name": "args",
          "type": "uint8[7]"
        }
      ],
      "name": "encodeAction",
      "outputs": [
        {
          "internalType": "uint256",
          "name": "",
          "type": "uint256"
        }
      ],
      "stateMutability": "pure",
      "type": "function"
    },
    {
      "inputs": [],
      "name": "getFreeSlotID",
      "outputs": [
        {
          "internalType": "int8",
          "name": "",
          "type": "int8"
        }
      ],
      "stateMutability": "view",
      "type": "function"
    },
    {
      "inputs": [
        {
          "internalType": "uint8",
          "name": "slotID",
          "type": "uint8"
        }
      ],
      "name": "getSeekerSlot",
      "outputs": [
        {
          "components": [
            {
              "internalType": "uint256",
              "name": "seekerID",
              "type": "uint256"
            },
            {
              "internalType": "uint256",
              "name": "hash",
              "type": "uint256"
            },
            {
              "internalType": "uint256[]",
              "name": "actions",
              "type": "uint256[]"
            }
          ],
          "internalType": "struct Slot",
          "name": "",
          "type": "tuple"
        }
      ],
      "stateMutability": "view",
      "type": "function"
    },
    {
      "inputs": [
        {
          "internalType": "uint256",
          "name": "seekerID",
          "type": "uint256"
        }
      ],
      "name": "getSeekerSlotID",
      "outputs": [
        {
          "internalType": "int8",
          "name": "",
          "type": "int8"
        }
      ],
      "stateMutability": "view",
      "type": "function"
    },
    {
      "inputs": [
        {
          "internalType": "uint8",
          "name": "runeTypeID",
          "type": "uint8"
        }
      ],
      "name": "getVerifiedRuneAlignment",
      "outputs": [
        {
          "internalType": "enum Alignment",
          "name": "",
          "type": "uint8"
        }
      ],
      "stateMutability": "view",
      "type": "function"
    },
    {
      "inputs": [],
      "name": "resetBattle",
      "outputs": [],
      "stateMutability": "nonpayable",
      "type": "function"
    },
    {
      "inputs": [
        {
          "internalType": "enum Action",
          "name": "action",
          "type": "uint8"
        },
        {
          "internalType": "uint8",
          "name": "seekerID",
          "type": "uint8"
        },
        {
          "internalType": "uint8",
          "name": "attackRuneID",
          "type": "uint8"
        },
        {
          "internalType": "uint8",
          "name": "armourRuneID",
          "type": "uint8"
        },
        {
          "internalType": "uint8",
          "name": "healthRuneID",
          "type": "uint8"
        }
      ],
      "name": "send",
      "outputs": [],
      "stateMutability": "nonpayable",
      "type": "function"
    },
    {
      "inputs": [
        {
          "internalType": "uint256",
          "name": "",
          "type": "uint256"
        }
      ],
      "name": "slots",
      "outputs": [
        {
          "internalType": "uint256",
          "name": "seekerID",
          "type": "uint256"
        },
        {
          "internalType": "uint256",
          "name": "hash",
          "type": "uint256"
        }
      ],
      "stateMutability": "view",
      "type": "function"
    },
    {
      "inputs": [
        {
          "components": [
            {
              "internalType": "uint256",
              "name": "dungeonArmour",
              "type": "uint256"
            },
            {
              "internalType": "uint256",
              "name": "dungeonHealth",
              "type": "uint256"
            },
            {
              "internalType": "uint256",
              "name": "seekerArmour",
              "type": "uint256"
            },
            {
              "internalType": "uint256",
              "name": "seekerHealth",
              "type": "uint256"
            },
            {
              "internalType": "uint256",
              "name": "seekerSlot",
              "type": "uint256"
            }
          ],
          "internalType": "struct CombatState",
          "name": "state",
          "type": "tuple"
        },
        {
          "components": [
            {
              "internalType": "uint256[2]",
              "name": "a",
              "type": "uint256[2]"
            },
            {
              "internalType": "uint256[2][2]",
              "name": "b",
              "type": "uint256[2][2]"
            },
            {
              "internalType": "uint256[2]",
              "name": "c",
              "type": "uint256[2]"
            }
          ],
          "internalType": "struct CombatProof",
          "name": "proof",
          "type": "tuple"
        }
      ],
      "name": "verifyState",
      "outputs": [
        {
          "internalType": "bool",
          "name": "",
          "type": "bool"
        }
      ],
      "stateMutability": "view",
      "type": "function"
    }
  ],
  "bytecode": {
    "object": "0x60806040526003805460ff60b81b1916600160b91b1790553480156200002457600080fd5b50604051620020f3380380620020f38339810160408190526200004791620002c2565b600080546001600160a01b03808a166001600160a01b03199283161790925560018054898416908316179055600280548884169083161790556003805492871691831682178155859290916001600160a81b031990911617600160a01b836005811115620000b957620000b962000357565b02179055506003805483919060ff60a81b1916600160a81b836005811115620000e657620000e662000357565b02179055506003805482919060ff60b01b1916600160b01b83600581111562000113576200011362000357565b0217905550620001226200012f565b50505050505050620003b1565b4360045560005b600a8160ff16101562000163576200014e8162000166565b806200015a816200036d565b91505062000136565b50565b600060058260ff16600a81106200018157620001816200039b565b60030201557f26277d2a18d30ce7a2e5aa51a742aff830befbe383bf75d5281941b627ca23b2600560ff8316600a8110620001c057620001c06200039b565b60030201600101556000604051908082528060200260200182016040528015620001f4578160200160208202803683370190505b5060058260ff16600a81106200020e576200020e6200039b565b6003020160020190805190602001906200022a9291906200022e565b5050565b8280548282559060005260206000209081019282156200026c579160200282015b828111156200026c5782518255916020019190600101906200024f565b506200027a9291506200027e565b5090565b5b808211156200027a57600081556001016200027f565b80516001600160a01b0381168114620002ad57600080fd5b919050565b805160068110620002ad57600080fd5b600080600080600080600060e0888a031215620002de57600080fd5b620002e98862000295565b9650620002f96020890162000295565b9550620003096040890162000295565b9450620003196060890162000295565b93506200032960808901620002b2565b92506200033960a08901620002b2565b91506200034960c08901620002b2565b905092959891949750929550565b634e487b7160e01b600052602160045260246000fd5b600060ff821660ff81036200039257634e487b7160e01b600052601160045260246000fd5b60010192915050565b634e487b7160e01b600052603260045260246000fd5b611d3280620003c16000396000f3fe608060405234801561001057600080fd5b50600436106101215760003560e01c80635747958a116100ad578063a65cb0ce11610071578063a65cb0ce1461029f578063afaa1fa2146102b2578063b28c6e81146102c5578063e8e412df146102d8578063ec47d213146102b257600080fd5b80635747958a1461023c578063607c883a1461024457806372f16da21461025757806396bb7ea31461026a578063a5992dfd1461027e57600080fd5b8063387dd9e9116100f4578063387dd9e91461019d5780633a5bca7e146101c55780633b7994c0146101eb5780633ceb117c146102115780633dfb0e031461022857600080fd5b806305407b1014610126578063125344211461013057806323ba9c1e146101595780632498fa941461017c575b600080fd5b61012e6102eb565b005b61014361013e366004611300565b61031c565b6040516101509190611324565b60405180910390f35b61016c6101673660046114b4565b6103d8565b6040519015158152602001610150565b60035461019090600160a81b900460ff1681565b60405161015091906115c4565b6101b06101ab3660046115de565b610582565b60408051928352602083019190915201610150565b6101d86101d33660046115de565b6105a4565b60405160009190910b8152602001610150565b6003546101ff90600160b81b900460ff1681565b60405160ff9091168152602001610150565b61021a60045481565b604051908152602001610150565b60035461019090600160b01b900460ff1681565b6101d86105f1565b6101ff610252366004611604565b61063d565b61012e6102653660046116c8565b6107e2565b60035461019090600160a01b900460ff1681565b61029161028c3660046115de565b610848565b604051610150929190611706565b61012e6102ad366004611752565b6108c6565b61012e6102c03660046114b4565b610ba8565b61021a6102d33660046117c1565b610bf2565b6101906102e6366004611300565b610c94565b4360045560005b600a8160ff1610156103195761030781610dd1565b806103118161180c565b9150506102f2565b50565b61034060405180606001604052806000815260200160008152602001606081525090565b60058260ff16600a81106103565761035661182b565b600302016040518060600160405290816000820154815260200160018201548152602001600282018054806020026020016040519081016040528092919081815260200182805480156103c857602002820191906000526020600020905b8154815260200190600101908083116103b4575b5050505050815250509050919050565b60006103e2611254565b835181526000806103f281611841565b91505084602001518282600f811061040c5761040c61182b565b60200201528061041b81611841565b91505084604001518282600f81106104355761043561182b565b60200201528061044481611841565b91505084606001518282600f811061045e5761045e61182b565b60200201528061046d81611841565b91505060005b600a8110156104ce57600581600a811061048f5761048f61182b565b60030201600101548383600f81106104a9576104a961182b565b6020020152816104b881611841565b92505080806104c690611841565b915050610473565b5084608001518282600f81106104e6576104e661182b565b6020020152806104f581611841565b600254865160208801516040808a0151905163f054a9a360e01b81529496506001600160a01b03909316945063f054a9a39361053693908890600401611883565b602060405180830381865afa158015610553573d6000803e3d6000fd5b505050506040513d601f19601f820116820180604052508101906105779190611907565b925050505b92915050565b600581600a811061059257600080fd5b60030201805460019091015490915082565b6000805b600a8110156105e75782600582600a81106105c5576105c561182b565b6003020154036105d55792915050565b806105df81611841565b9150506105a8565b5060001992915050565b6000805b600a81101561063457600581600a81106106115761061161182b565b600302015460000361062257919050565b8061062c81611841565b9150506105f5565b50600019905090565b60006001836005811115610653576106536115ae565b036106a057600282600581111561066c5761066c6115ae565b036106795750600361057c565b60055b82600581111561068e5761068e6115ae565b0361069b5750600261057c565b6107d9565b60028360058111156106b4576106b46115ae565b036106fc5760038260058111156106cd576106cd6115ae565b036106da5750600261057c565b60055b8260058111156106ef576106ef6115ae565b0361069b5750600361057c565b6003836005811115610710576107106115ae565b0361073d576001826005811115610729576107296115ae565b036107365750600261057c565b60046106dd565b6004836005811115610751576107516115ae565b0361077e57600182600581111561076a5761076a6115ae565b036107775750600361057c565b600261067c565b6005836005811115610792576107926115ae565b036107d95760038260058111156107ab576107ab6115ae565b036107b85750600361057c565b60048260058111156107cc576107cc6115ae565b036107d95750600261057c565b50600092915050565b600582600a81106107f5576107f561182b565b600302016002016108068483610bf2565b8154600181018355600092835260209092209091015561082582610e89565b600583600a81106108385761083861182b565b6003020160010181905550505050565b6000610852611273565b60ff600884901c16600381111561086b5761086b6115ae565b60ff601585901c81168352602285901c81166020840152602f85901c81166040840152603c85901c81166060840152604985901c81166080840152605685901c811660a084015260639490941c90931660c082015291929050565b6000546040516331a9108f60e11b815260ff8616600482015232916001600160a01b031690636352211e90602401602060405180830381865afa158015610911573d6000803e3d6000fd5b505050506040513d601f19601f820116820180604052508101906109359190611929565b6001600160a01b0316146109825760405162461bcd60e51b815260206004820152600f60248201526e3737ba103cb7bab91039b2b2b5b2b960891b60448201526064015b60405180910390fd5b60006109908560ff166105a4565b905060008660038111156109a6576109a66115ae565b03610a57578060000b600019146109f45760405162461bcd60e51b815260206004820152601260248201527130b63932b0b23c9034b710323ab733b2b7b760711b6044820152606401610979565b6109fc6105f1565b90508060000b60001903610a445760405162461bcd60e51b815260206004820152600f60248201526e191d5b99d95bdb881a5cc8199d5b1b608a1b6044820152606401610979565b610a52868287878787611053565b610ba0565b6003866003811115610a6b57610a6b6115ae565b03610aef576000198160000b13610ab55760405162461bcd60e51b815260206004820152600e60248201526d3737ba1034b710323ab733b2b7b760911b6044820152606401610979565b60405162461bcd60e51b815260206004820152600f60248201526e1b9bdd081a5b5c1b195b595b9d1959608a1b6044820152606401610979565b6001866003811115610b0357610b036115ae565b03610b4d576000198160000b13610a445760405162461bcd60e51b815260206004820152600e60248201526d3737ba1034b710323ab733b2b7b760911b6044820152606401610979565b6002866003811115610b6157610b616115ae565b03610ba05760405162461bcd60e51b815260206004820152600f60248201526e1b9bdd081a5b5c1b195b595b9d1959608a1b6044820152606401610979565b505050505050565b610bb282826103d8565b610bee5760405162461bcd60e51b815260206004820152600d60248201526c696e76616c696420737461746560981b6044820152606401610979565b5050565b60006063826006602002015160ff16901b6056836005602002015160ff16901b6049846004602002015160ff16901b603c856003602002015160ff16901b602f866002602002015160ff16901b6022876001602002015160ff16901b6015886000602002015160ff16901b60088a6003811115610c7157610c716115ae565b901b8a6003811115610c8557610c856115ae565b17171717171717179392505050565b60008160ff16600003610ca957506000919050565b6001546040516331a9108f60e11b815260ff8416600482015233916001600160a01b031690636352211e90602401602060405180830381865afa158015610cf4573d6000803e3d6000fd5b505050506040513d601f19601f82011682018060405250810190610d189190611929565b6001600160a01b031614610d625760405162461bcd60e51b8152602060048201526011602482015270646f6573206e6f74206f776e2072756e6560781b6044820152606401610979565b6001546040516327257c7560e01b815260ff841660048201526001600160a01b03909116906327257c7590602401602060405180830381865afa158015610dad573d6000803e3d6000fd5b505050506040513d601f19601f8201168201806040525081019061057c9190611952565b600060058260ff16600a8110610de957610de961182b565b60030201557f26277d2a18d30ce7a2e5aa51a742aff830befbe383bf75d5281941b627ca23b2600560ff8316600a8110610e2557610e2561182b565b60030201600101556000604051908082528060200260200182016040528015610e58578160200160208202803683370190505b5060058260ff16600a8110610e6f57610e6f61182b565b600302016002019080519060200190610bee929190611291565b600080600583600a8110610e9f57610e9f61182b565b600302019050600080610eb0611273565b600284015460649060009081908190819081905b801561104257610efc60028c01610edc60018461196f565b81548110610eec57610eec61182b565b9060005260206000200154610848565b90995097506000896003811115610f1557610f156115ae565b1480610f3257506001896003811115610f3057610f306115ae565b145b156110305780600114610f46578751610f49565b60005b602089015160408a015160608b015160808c01519399509197509550935091505b610f75866001611982565b60ff168760ff1610611030576003546040805160a0810182528c815260ff8089166020830152878116828401528681166060830152851660808201529051630926f44b60e31b81526001600160a01b0390921691634937a25891610fdb9160040161199b565b602060405180830381865afa158015610ff8573d6000803e3d6000fd5b505050506040513d601f19601f8201168201806040525081019061101c91906119cc565b995086611028816119e5565b975050610f6a565b8061103a81611a02565b915050610ec4565b50979b9a5050505050505050505050565b60008054604051630178fe3f60e01b815260ff871660048201526001600160a01b0390911690630178fe3f90602401600060405180830381865afa15801561109f573d6000803e3d6000fd5b505050506040513d6000823e601f3d908101601f191682016040526110c79190810190611abb565b905060006110d485610c94565b905060006110e185610c94565b905060006110ee85610c94565b90506112068a8a60ff166040518060e0016040528060045443611111919061196f565b60ff1660ff16815260200161113588600360159054906101000a900460ff1661063d565b89606001516111449190611982565b60ff1660ff16815260200161116888600360169054906101000a900460ff1661063d565b89606001516111779190611982565b60ff1660ff16815260200161119b600360149054906101000a900460ff168861063d565b6003546111b29190600160b81b900460ff16611982565b60ff1660ff1681526020016111d6600360149054906101000a900460ff168761063d565b6003546111ed9190600160b81b900460ff16611982565b60ff1681526000602082018190526040909101526107e2565b60058960ff16600a811061121c5761121c61182b565b6003020154600003611248578760ff1660058a60ff16600a81106112425761124261182b565b60030201555b50505050505050505050565b604051806101e00160405280600f906020820280368337509192915050565b6040518060e001604052806007906020820280368337509192915050565b8280548282559060005260206000209081019282156112cc579160200282015b828111156112cc5782518255916020019190600101906112b1565b506112d89291506112dc565b5090565b5b808211156112d857600081556001016112dd565b60ff8116811461031957600080fd5b60006020828403121561131257600080fd5b813561131d816112f1565b9392505050565b6000602080835260808301845182850152818501516040850152604085015160608086015281815180845260a0870191508483019350600092505b8083101561137f578351825292840192600192909201919084019061135f565b509695505050505050565b634e487b7160e01b600052604160045260246000fd5b60405160a0810167ffffffffffffffff811182821017156113c3576113c361138a565b60405290565b6040516060810167ffffffffffffffff811182821017156113c3576113c361138a565b604051610280810167ffffffffffffffff811182821017156113c3576113c361138a565b6040805190810167ffffffffffffffff811182821017156113c3576113c361138a565b604051601f8201601f1916810167ffffffffffffffff8111828210171561145c5761145c61138a565b604052919050565b600082601f83011261147557600080fd5b61147d611410565b80604084018581111561148f57600080fd5b845b818110156114a9578035845260209384019301611491565b509095945050505050565b6000808284036101a08112156114c957600080fd5b60a08112156114d757600080fd5b6114df6113a0565b8435815260208086013581830152604080870135818401526060870135606084015260808701356080840152829550610100609f198501121561152157600080fd5b6115296113c9565b93506115388860a08901611464565b84528760ff88011261154957600080fd5b611551611410565b92508261016088018981111561156657600080fd5b60e089015b8181101561158a5761157d8b82611464565b865294840194830161156b565b50818487015261159a8a82611464565b838701525050505050809150509250929050565b634e487b7160e01b600052602160045260246000fd5b60208101600683106115d8576115d86115ae565b91905290565b6000602082840312156115f057600080fd5b5035919050565b6006811061031957600080fd5b6000806040838503121561161757600080fd5b8235611622816115f7565b91506020830135611632816115f7565b809150509250929050565b80356004811061164c57600080fd5b919050565b600082601f83011261166257600080fd5b60405160e0810181811067ffffffffffffffff821117156116855761168561138a565b6040528060e084018581111561169a57600080fd5b845b818110156116bd5780356116af816112f1565b83526020928301920161169c565b509195945050505050565b600080600061012084860312156116de57600080fd5b6116e78461163d565b9250602084013591506116fd8560408601611651565b90509250925092565b61010081016004841061171b5761171b6115ae565b83825260208083018460005b600781101561174757815160ff1683529183019190830190600101611727565b505050509392505050565b600080600080600060a0868803121561176a57600080fd5b6117738661163d565b94506020860135611783816112f1565b93506040860135611793816112f1565b925060608601356117a3816112f1565b915060808601356117b3816112f1565b809150509295509295909350565b60008061010083850312156117d557600080fd5b6117de8361163d565b91506117ed8460208501611651565b90509250929050565b634e487b7160e01b600052601160045260246000fd5b600060ff821660ff8103611822576118226117f6565b60010192915050565b634e487b7160e01b600052603260045260246000fd5b600060018201611853576118536117f6565b5060010190565b8060005b600281101561187d57815184526020938401939091019060010161185e565b50505050565b6102e08101611892828761185a565b60408083018660005b60028110156118c2576118af83835161185a565b918301916020919091019060010161189b565b505050506118d360c083018561185a565b61010082018360005b600f8110156118fb5781518352602092830192909101906001016118dc565b50505095945050505050565b60006020828403121561191957600080fd5b8151801515811461131d57600080fd5b60006020828403121561193b57600080fd5b81516001600160a01b038116811461131d57600080fd5b60006020828403121561196457600080fd5b815161131d816115f7565b8181038181111561057c5761057c6117f6565b60ff818116838216019081111561057c5761057c6117f6565b60a08101818360005b60058110156119c35781518352602092830192909101906001016119a4565b50505092915050565b6000602082840312156119de57600080fd5b5051919050565b600060ff8216806119f8576119f86117f6565b6000190192915050565b600081611a1157611a116117f6565b506000190190565b600082601f830112611a2a57600080fd5b815167ffffffffffffffff811115611a4457611a4461138a565b6020611a58601f8301601f19168201611433565b8281528582848701011115611a6c57600080fd5b60005b83811015611a8a578581018301518282018401528201611a6f565b506000928101909101919091529392505050565b805161164c816112f1565b805161ffff8116811461164c57600080fd5b600060208284031215611acd57600080fd5b815167ffffffffffffffff80821115611ae557600080fd5b908301906102808286031215611afa57600080fd5b611b026113ec565b82518152602083015182811115611b1857600080fd5b611b2487828601611a19565b60208301525060408301516040820152611b4060608401611a9e565b6060820152611b5160808401611a9e565b6080820152611b6260a08401611a9e565b60a0820152611b7360c08401611a9e565b60c0820152611b8460e08401611a9e565b60e0820152610100611b97818501611a9e565b90820152610120611ba9848201611a9e565b90820152610140611bbb848201611a9e565b908201526101608381015183811115611bd357600080fd5b611bdf88828701611a19565b8284015250506101808084015183811115611bf957600080fd5b611c0588828701611a19565b8284015250506101a08084015183811115611c1f57600080fd5b611c2b88828701611a19565b8284015250506101c08084015183811115611c4557600080fd5b611c5188828701611a19565b8284015250506101e08084015183811115611c6b57600080fd5b611c7788828701611a19565b8284015250506102008084015183811115611c9157600080fd5b611c9d88828701611a19565b8284015250506102208084015183811115611cb757600080fd5b611cc388828701611a19565b8284015250506102409150611cd9828401611aa9565b828201526102609150611ced828401611aa9565b9181019190915294935050505056fea2646970667358221220eb188c775964e47c4fbfc79f46564e2de261574edb9c71d66851d4662091a7e864736f6c63430008100033",
    "linkReferences": {}
  },
  "methodIdentifiers": {
    "alignmentBonus(uint8,uint8)": "607c883a",
    "appendAction(uint8,uint256,uint8[7])": "72f16da2",
    "claimAttackRune((uint256,uint256,uint256,uint256,uint256),(uint256[2],uint256[2][2],uint256[2]))": "afaa1fa2",
    "claimReward((uint256,uint256,uint256,uint256,uint256),(uint256[2],uint256[2][2],uint256[2]))": "ec47d213",
    "decodeAction(uint256)": "a5992dfd",
    "dungeonArmourAlignment()": "2498fa94",
    "dungeonAttackAlignment()": "96bb7ea3",
    "dungeonBattleStart()": "3ceb117c",
    "dungeonHealthAlignment()": "3dfb0e03",
    "dungeonStrength()": "3b7994c0",
    "encodeAction(uint8,uint8[7])": "b28c6e81",
    "getFreeSlotID()": "5747958a",
    "getSeekerSlot(uint8)": "12534421",
    "getSeekerSlotID(uint256)": "3a5bca7e",
    "getVerifiedRuneAlignment(uint8)": "e8e412df",
    "resetBattle()": "05407b10",
    "send(uint8,uint8,uint8,uint8,uint8)": "a65cb0ce",
    "slots(uint256)": "387dd9e9",
    "verifyState((uint256,uint256,uint256,uint256,uint256),(uint256[2],uint256[2][2],uint256[2]))": "23ba9c1e"
  },
  "id": 21
}