{
  "abi": [
    {
      "inputs": [
        {
          "internalType": "address",
          "name": "",
          "type": "address"
        }
      ],
      "name": "proxies",
      "outputs": [
        {
          "internalType": "contract OwnableDelegateProxy",
          "name": "",
          "type": "address"
        }
      ],
      "stateMutability": "view",
      "type": "function"
    }
  ],
  "bytecode": {
    "object": "0x608060405234801561001057600080fd5b5060d38061001f6000396000f3fe6080604052348015600f57600080fd5b506004361060285760003560e01c8063c455279114602d575b600080fd5b60536038366004606f565b6000602081905290815260409020546001600160a01b031681565b6040516001600160a01b03909116815260200160405180910390f35b600060208284031215608057600080fd5b81356001600160a01b0381168114609657600080fd5b939250505056fea2646970667358221220e44d6d04f27ba682d49c92ef5670173f96b3be9276fe9bd139d294fd29392d4364736f6c63430008100033",
    "linkReferences": {}
  },
  "methodIdentifiers": {
    "proxies(address)": "c4552791"
  },
  "id": 11
}