{
  "abi": [
    {
      "anonymous": false,
      "inputs": [
        {
          "indexed": false,
          "internalType": "uint8",
          "name": "version",
          "type": "uint8"
        }
      ],
      "name": "Initialized",
      "type": "event"
    },
    {
      "inputs": [],
      "name": "admin",
      "outputs": [
        {
          "internalType": "address",
          "name": "",
          "type": "address"
        }
      ],
      "stateMutability": "view",
      "type": "function"
    },
    {
      "inputs": [],
      "name": "getImplementation",
      "outputs": [
        {
          "internalType": "address",
          "name": "",
          "type": "address"
        }
      ],
      "stateMutability": "view",
      "type": "function"
    },
    {
      "inputs": [],
      "name": "owner",
      "outputs": [
        {
          "internalType": "address",
          "name": "",
          "type": "address"
        }
      ],
      "stateMutability": "view",
      "type": "function"
    },
    {
      "inputs": [],
      "name": "renounceAdminPowers",
      "outputs": [],
      "stateMutability": "nonpayable",
      "type": "function"
    },
    {
      "inputs": [
        {
          "internalType": "address",
          "name": "newAdmin",
          "type": "address"
        }
      ],
      "name": "setAdmin",
      "outputs": [],
      "stateMutability": "nonpayable",
      "type": "function"
    },
    {
      "inputs": [
        {
          "internalType": "address",
          "name": "implementation",
          "type": "address"
        }
      ],
      "name": "setImplementation",
      "outputs": [],
      "stateMutability": "nonpayable",
      "type": "function"
    }
  ],
  "bytecode": {
    "object": "0x608060405234801561001057600080fd5b506103ba806100206000396000f3fe608060405234801561001057600080fd5b50600436106100625760003560e01c8063704b6c021461006757806389f1258c1461007c5780638da5cb5b14610084578063aaf10f42146100a8578063d784d426146100b0578063f851a440146100c3575b600080fd5b61007a610075366004610311565b6100cb565b005b61007a610165565b61008c6101a0565b6040516001600160a01b03909116815260200160405180910390f35b61008c6101af565b61007a6100be366004610311565b6101e2565b61008c6102c2565b336100d46102c2565b6001600160a01b0316146101035760405162461bcd60e51b81526004016100fa90610341565b60405180910390fd5b6001600160a01b0381166101595760405162461bcd60e51b815260206004820152601860248201527f696e76616c6964206e657741646d696e2061646472657373000000000000000060448201526064016100fa565b610162816102ea565b50565b3361016e6102c2565b6001600160a01b0316146101945760405162461bcd60e51b81526004016100fa90610341565b61019e60006102ea565b565b60006101aa6102c2565b905090565b60007f360894a13ba1a3210667c828492db98dca3e2076cc3735a920a3ca505d382bbc5b546001600160a01b0316919050565b336101eb6102c2565b6001600160a01b0316146102115760405162461bcd60e51b81526004016100fa90610341565b6001600160a01b0381163b61027e5760405162461bcd60e51b815260206004820152602d60248201527f455243313936373a206e657720696d706c656d656e746174696f6e206973206e60448201526c1bdd08184818dbdb9d1c9858dd609a1b60648201526084016100fa565b807f360894a13ba1a3210667c828492db98dca3e2076cc3735a920a3ca505d382bbc5b80546001600160a01b0319166001600160a01b039290921691909117905550565b60007fb53127684a568b3173ae13b9f8a6016e243e63b6e8ee1178d6a717850b5d61036101d3565b807fb53127684a568b3173ae13b9f8a6016e243e63b6e8ee1178d6a717850b5d61036102a1565b60006020828403121561032357600080fd5b81356001600160a01b038116811461033a57600080fd5b9392505050565b60208082526023908201527f496d706c656d656e746174696f6e3a2063616c6c6572206973206e6f7420616460408201526236b4b760e91b60608201526080019056fea2646970667358221220357a09368928a1fb864c4f8d68d24cd31e38e259fa7a9d2f4d67d938e3a2e0cc64736f6c63430008100033",
    "linkReferences": {}
  },
  "methodIdentifiers": {
    "admin()": "f851a440",
    "getImplementation()": "aaf10f42",
    "owner()": "8da5cb5b",
    "renounceAdminPowers()": "89f1258c",
    "setAdmin(address)": "704b6c02",
    "setImplementation(address)": "d784d426"
  },
  "id": 1
}